{
  "contractName": "BountyFactory",
  "abi": [
    {
      "inputs": [],
      "stateMutability": "nonpayable",
      "type": "constructor"
    },
    {
      "anonymous": false,
      "inputs": [
        {
          "indexed": true,
          "internalType": "address",
          "name": "bountyAddress",
          "type": "address"
        }
      ],
      "name": "BountyCreated",
      "type": "event"
    },
    {
      "anonymous": false,
      "inputs": [
        {
          "indexed": true,
          "internalType": "address",
          "name": "previousOwner",
          "type": "address"
        },
        {
          "indexed": true,
          "internalType": "address",
          "name": "newOwner",
          "type": "address"
        }
      ],
      "name": "OwnershipTransferred",
      "type": "event"
    },
    {
      "anonymous": false,
      "inputs": [
        {
          "indexed": false,
          "internalType": "address",
          "name": "account",
          "type": "address"
        }
      ],
      "name": "Paused",
      "type": "event"
    },
    {
      "anonymous": false,
      "inputs": [
        {
          "indexed": false,
          "internalType": "address",
          "name": "account",
          "type": "address"
        }
      ],
      "name": "Unpaused",
      "type": "event"
    },
    {
      "inputs": [],
      "name": "MAXLIMIT",
      "outputs": [
        {
          "internalType": "uint256",
          "name": "",
          "type": "uint256"
        }
      ],
      "stateMutability": "view",
      "type": "function",
      "constant": true
    },
    {
      "inputs": [
        {
          "internalType": "address",
          "name": "",
          "type": "address"
        }
      ],
      "name": "isBountyOwner",
      "outputs": [
        {
          "internalType": "bool",
          "name": "",
          "type": "bool"
        }
      ],
      "stateMutability": "view",
      "type": "function",
      "constant": true
    },
    {
      "inputs": [],
      "name": "owner",
      "outputs": [
        {
          "internalType": "address",
          "name": "",
          "type": "address"
        }
      ],
      "stateMutability": "view",
      "type": "function",
      "constant": true
    },
    {
      "inputs": [
        {
          "internalType": "address",
          "name": "",
          "type": "address"
        },
        {
          "internalType": "uint256",
          "name": "",
          "type": "uint256"
        }
      ],
      "name": "ownerBounties",
      "outputs": [
        {
          "internalType": "contract Bounty",
          "name": "",
          "type": "address"
        }
      ],
      "stateMutability": "view",
      "type": "function",
      "constant": true
    },
    {
      "inputs": [],
      "name": "paused",
      "outputs": [
        {
          "internalType": "bool",
          "name": "",
          "type": "bool"
        }
      ],
      "stateMutability": "view",
      "type": "function",
      "constant": true
    },
    {
      "inputs": [],
      "name": "renounceOwnership",
      "outputs": [],
      "stateMutability": "nonpayable",
      "type": "function"
    },
    {
      "inputs": [
        {
          "internalType": "address",
          "name": "newOwner",
          "type": "address"
        }
      ],
      "name": "transferOwnership",
      "outputs": [],
      "stateMutability": "nonpayable",
      "type": "function"
    },
    {
      "inputs": [
        {
          "internalType": "uint256",
          "name": "_amount",
          "type": "uint256"
        },
        {
          "internalType": "string",
          "name": "_title",
          "type": "string"
        },
        {
          "internalType": "string",
          "name": "_desc",
          "type": "string"
        }
      ],
      "name": "createNewBounty",
      "outputs": [],
      "stateMutability": "payable",
      "type": "function",
      "payable": true
    },
    {
      "inputs": [
        {
          "internalType": "uint256",
          "name": "_limit",
          "type": "uint256"
        },
        {
          "internalType": "uint256",
          "name": "_offset",
          "type": "uint256"
        }
      ],
      "name": "getBounties",
      "outputs": [
        {
          "internalType": "contract Bounty[]",
          "name": "_bounties",
          "type": "address[]"
        }
      ],
      "stateMutability": "view",
      "type": "function",
      "constant": true
    },
    {
      "inputs": [],
      "name": "getMyBounties",
      "outputs": [
        {
          "internalType": "contract Bounty[]",
          "name": "_ownerBounties",
          "type": "address[]"
        }
      ],
      "stateMutability": "view",
      "type": "function",
      "constant": true
    },
    {
      "inputs": [],
      "name": "getMyBountiesCount",
      "outputs": [
        {
          "internalType": "uint256",
          "name": "_count",
          "type": "uint256"
        }
      ],
      "stateMutability": "view",
      "type": "function",
      "constant": true
    },
    {
      "inputs": [],
      "name": "bountiesCount",
      "outputs": [
        {
          "internalType": "uint256",
          "name": "",
          "type": "uint256"
        }
      ],
      "stateMutability": "view",
      "type": "function",
      "constant": true
    }
  ],
  "bytecode": "0x6080604052601460015534801561001557600080fd5b50600061002661015560201b60201c565b9050806000806101000a81548173ffffffffffffffffffffffffffffffffffffffff021916908373ffffffffffffffffffffffffffffffffffffffff1602179055508073ffffffffffffffffffffffffffffffffffffffff16600073ffffffffffffffffffffffffffffffffffffffff167f8be0079c531659141344cd1fd0a4f28419497f9722a3daafe3b4186f6b6457e060405160405180910390a35060008060146101000a81548160ff02191690831515021790555033600260006101000a81548173ffffffffffffffffffffffffffffffffffffffff021916908373ffffffffffffffffffffffffffffffffffffffff160217905550610150600260009054906101000a900473ffffffffffffffffffffffffffffffffffffffff1661015d60201b60201c565b610371565b600033905090565b61016b61015560201b60201c565b73ffffffffffffffffffffffffffffffffffffffff166000809054906101000a900473ffffffffffffffffffffffffffffffffffffffff1673ffffffffffffffffffffffffffffffffffffffff161461022c576040517f08c379a00000000000000000000000000000000000000000000000000000000081526004018080602001828103825260208152602001807f4f776e61626c653a2063616c6c6572206973206e6f7420746865206f776e657281525060200191505060405180910390fd5b600073ffffffffffffffffffffffffffffffffffffffff168173ffffffffffffffffffffffffffffffffffffffff1614156102b3576040517f08c379a0000000000000000000000000000000000000000000000000000000008152600401808060200182810382526026815260200180620047116026913960400191505060405180910390fd5b8073ffffffffffffffffffffffffffffffffffffffff166000809054906101000a900473ffffffffffffffffffffffffffffffffffffffff1673ffffffffffffffffffffffffffffffffffffffff167f8be0079c531659141344cd1fd0a4f28419497f9722a3daafe3b4186f6b6457e060405160405180910390a3806000806101000a81548173ffffffffffffffffffffffffffffffffffffffff021916908373ffffffffffffffffffffffffffffffffffffffff16021790555050565b61439080620003816000396000f3fe608060405260043610620000b65760003560e01c80638da5cb5b116200006d5780638da5cb5b14620002a25780639509bf5c14620002fc57806395f1967f1462000369578063d6f301611462000397578063f2fde38b14620004fc578063f476861f146200055157620000b6565b80630bbefd5414620000bb5780630d679fd214620000e957806313b32e9714620001885780633d3b5dab14620001b65780635c975abb1462000256578063715018a61462000288575b600080fd5b348015620000c857600080fd5b50620000d3620005c2565b6040518082815260200191505060405180910390f35b348015620000f657600080fd5b5062000146600480360360408110156200010f57600080fd5b81019080803573ffffffffffffffffffffffffffffffffffffffff16906020019092919080359060200190929190505050620005c8565b604051808273ffffffffffffffffffffffffffffffffffffffff1673ffffffffffffffffffffffffffffffffffffffff16815260200191505060405180910390f35b3480156200019557600080fd5b50620001a062000614565b6040518082815260200191505060405180910390f35b348015620001c357600080fd5b50620001fd60048036036040811015620001dc57600080fd5b81019080803590602001909291908035906020019092919050505062000621565b6040518080602001828103825283818151815260200191508051906020019060200280838360005b838110156200024257808201518184015260208101905062000225565b505050509050019250505060405180910390f35b3480156200026357600080fd5b506200026e6200083a565b604051808215151515815260200191505060405180910390f35b3480156200029557600080fd5b50620002a062000850565b005b348015620002af57600080fd5b50620002ba620009db565b604051808273ffffffffffffffffffffffffffffffffffffffff1673ffffffffffffffffffffffffffffffffffffffff16815260200191505060405180910390f35b3480156200030957600080fd5b506200034f600480360360208110156200032257600080fd5b81019080803573ffffffffffffffffffffffffffffffffffffffff16906020019092919050505062000a04565b604051808215151515815260200191505060405180910390f35b3480156200037657600080fd5b506200038162000a24565b6040518082815260200191505060405180910390f35b620004fa60048036036060811015620003af57600080fd5b810190808035906020019092919080359060200190640100000000811115620003d757600080fd5b820183602082011115620003ea57600080fd5b803590602001918460018302840111640100000000831117156200040d57600080fd5b91908080601f016020809104026020016040519081016040528093929190818152602001838380828437600081840152601f19601f820116905080830192505050505050509192919290803590602001906401000000008111156200047157600080fd5b8201836020820111156200048457600080fd5b80359060200191846001830284011164010000000083111715620004a757600080fd5b91908080601f016020809104026020016040519081016040528093929190818152602001838380828437600081840152601f19601f82011690508083019250505050505050919291929050505062000a6e565b005b3480156200050957600080fd5b506200054f600480360360208110156200052257600080fd5b81019080803573ffffffffffffffffffffffffffffffffffffffff16906020019092919050505062000e6c565b005b3480156200055e57600080fd5b50620005696200107e565b6040518080602001828103825283818151815260200191508051906020019060200280838360005b83811015620005ae57808201518184015260208101905062000591565b505050509050019250505060405180910390f35b60015481565b60046020528160005260406000208181548110620005e257fe5b906000526020600020016000915091509054906101000a900473ffffffffffffffffffffffffffffffffffffffff1681565b6000600580549050905090565b6060600060149054906101000a900460ff1615620006a7576040517f08c379a00000000000000000000000000000000000000000000000000000000081526004018080602001828103825260108152602001807f5061757361626c653a207061757365640000000000000000000000000000000081525060200191505060405180910390fd5b620006b162000614565b8211156200070b576040517f08c379a0000000000000000000000000000000000000000000000000000000008152600401808060200182810382526023815260200180620043386023913960400191505060405180910390fd5b6000826200071862000614565b0390508381106200072a57836200072c565b805b90506001548110620007415760015462000743565b805b90508067ffffffffffffffff811180156200075d57600080fd5b506040519080825280602002602001820160405280156200078d5781602001602082028036833780820191505090505b50915060008090505b818110156200082f57600581850181548110620007af57fe5b9060005260206000200160009054906101000a900473ffffffffffffffffffffffffffffffffffffffff16838281518110620007e757fe5b602002602001019073ffffffffffffffffffffffffffffffffffffffff16908173ffffffffffffffffffffffffffffffffffffffff1681525050808060010191505062000796565b508191505092915050565b60008060149054906101000a900460ff16905090565b6200085a6200114b565b73ffffffffffffffffffffffffffffffffffffffff166000809054906101000a900473ffffffffffffffffffffffffffffffffffffffff1673ffffffffffffffffffffffffffffffffffffffff16146200091c576040517f08c379a00000000000000000000000000000000000000000000000000000000081526004018080602001828103825260208152602001807f4f776e61626c653a2063616c6c6572206973206e6f7420746865206f776e657281525060200191505060405180910390fd5b600073ffffffffffffffffffffffffffffffffffffffff166000809054906101000a900473ffffffffffffffffffffffffffffffffffffffff1673ffffffffffffffffffffffffffffffffffffffff167f8be0079c531659141344cd1fd0a4f28419497f9722a3daafe3b4186f6b6457e060405160405180910390a360008060006101000a81548173ffffffffffffffffffffffffffffffffffffffff021916908373ffffffffffffffffffffffffffffffffffffffff160217905550565b60008060009054906101000a900473ffffffffffffffffffffffffffffffffffffffff16905090565b60036020528060005260406000206000915054906101000a900460ff1681565b6000600460003373ffffffffffffffffffffffffffffffffffffffff1673ffffffffffffffffffffffffffffffffffffffff16815260200190815260200160002080549050905090565b600060149054906101000a900460ff161562000af2576040517f08c379a00000000000000000000000000000000000000000000000000000000081526004018080602001828103825260108152602001807f5061757361626c653a207061757365640000000000000000000000000000000081525060200191505060405180910390fd5b828034101562000b0157600080fd5b83600085858560405162000b159062001153565b808481526020018060200180602001838103835285818151815260200191508051906020019080838360005b8381101562000b5e57808201518184015260208101905062000b41565b50505050905090810190601f16801562000b8c5780820380516001836020036101000a031916815260200191505b50838103825284818151815260200191508051906020019080838360005b8381101562000bc757808201518184015260208101905062000baa565b50505050905090810190601f16801562000bf55780820380516001836020036101000a031916815260200191505b5095505050505050604051809103906000f08015801562000c1a573d6000803e3d6000fd5b50905060008190508073ffffffffffffffffffffffffffffffffffffffff166108fc889081150290604051600060405180830381858888f1935050505015801562000c69573d6000803e3d6000fd5b506001600360003373ffffffffffffffffffffffffffffffffffffffff1673ffffffffffffffffffffffffffffffffffffffff16815260200190815260200160002060006101000a81548160ff021916908315150217905550600460003373ffffffffffffffffffffffffffffffffffffffff1673ffffffffffffffffffffffffffffffffffffffff168152602001908152602001600020829080600181540180825580915050600190039060005260206000200160009091909190916101000a81548173ffffffffffffffffffffffffffffffffffffffff021916908373ffffffffffffffffffffffffffffffffffffffff1602179055506005829080600181540180825580915050600190039060005260206000200160009091909190916101000a81548173ffffffffffffffffffffffffffffffffffffffff021916908373ffffffffffffffffffffffffffffffffffffffff1602179055508173ffffffffffffffffffffffffffffffffffffffff167f296fd2c434595e170589ead76f71af701ab651dd12e03e8c108123ec7c809a7360405160405180910390a2505060008134039050600081111562000e64573373ffffffffffffffffffffffffffffffffffffffff166108fc829081150290604051600060405180830381858888f1935050505015801562000e62573d6000803e3d6000fd5b505b505050505050565b62000e766200114b565b73ffffffffffffffffffffffffffffffffffffffff166000809054906101000a900473ffffffffffffffffffffffffffffffffffffffff1673ffffffffffffffffffffffffffffffffffffffff161462000f38576040517f08c379a00000000000000000000000000000000000000000000000000000000081526004018080602001828103825260208152602001807f4f776e61626c653a2063616c6c6572206973206e6f7420746865206f776e657281525060200191505060405180910390fd5b600073ffffffffffffffffffffffffffffffffffffffff168173ffffffffffffffffffffffffffffffffffffffff16141562000fc0576040517f08c379a0000000000000000000000000000000000000000000000000000000008152600401808060200182810382526026815260200180620043126026913960400191505060405180910390fd5b8073ffffffffffffffffffffffffffffffffffffffff166000809054906101000a900473ffffffffffffffffffffffffffffffffffffffff1673ffffffffffffffffffffffffffffffffffffffff167f8be0079c531659141344cd1fd0a4f28419497f9722a3daafe3b4186f6b6457e060405160405180910390a3806000806101000a81548173ffffffffffffffffffffffffffffffffffffffff021916908373ffffffffffffffffffffffffffffffffffffffff16021790555050565b6060600460003373ffffffffffffffffffffffffffffffffffffffff1673ffffffffffffffffffffffffffffffffffffffff1681526020019081526020016000208054806020026020016040519081016040528092919081815260200182805480156200114157602002820191906000526020600020905b8160009054906101000a900473ffffffffffffffffffffffffffffffffffffffff1673ffffffffffffffffffffffffffffffffffffffff1681526020019060010190808311620010f6575b5050505050905090565b600033905090565b6131b080620011628339019056fe6080604052604051620031b0380380620031b083398181016040528101906200002991906200049b565b60006200003b6200019f60201b60201c565b9050806000806101000a81548173ffffffffffffffffffffffffffffffffffffffff021916908373ffffffffffffffffffffffffffffffffffffffff1602179055508073ffffffffffffffffffffffffffffffffffffffff16600073ffffffffffffffffffffffffffffffffffffffff167f8be0079c531659141344cd1fd0a4f28419497f9722a3daafe3b4186f6b6457e060405160405180910390a350600180819055506000600260006101000a81548160ff0219169083151502179055506200010c32620001a760201b60201c565b6000600260016101000a81548173ffffffffffffffffffffffffffffffffffffffff021916908373ffffffffffffffffffffffffffffffffffffffff1602179055508260048190555080600590805190602001906200016d92919062000379565b5081600690805190602001906200018692919062000379565b50426007819055506000600381905550505050620006d7565b600033905090565b620001b76200019f60201b60201c565b73ffffffffffffffffffffffffffffffffffffffff166000809054906101000a900473ffffffffffffffffffffffffffffffffffffffff1673ffffffffffffffffffffffffffffffffffffffff161462000248576040517f08c379a00000000000000000000000000000000000000000000000000000000081526004016200023f90620005ef565b60405180910390fd5b600073ffffffffffffffffffffffffffffffffffffffff168173ffffffffffffffffffffffffffffffffffffffff161415620002bb576040517f08c379a0000000000000000000000000000000000000000000000000000000008152600401620002b290620005cd565b60405180910390fd5b8073ffffffffffffffffffffffffffffffffffffffff166000809054906101000a900473ffffffffffffffffffffffffffffffffffffffff1673ffffffffffffffffffffffffffffffffffffffff167f8be0079c531659141344cd1fd0a4f28419497f9722a3daafe3b4186f6b6457e060405160405180910390a3806000806101000a81548173ffffffffffffffffffffffffffffffffffffffff021916908373ffffffffffffffffffffffffffffffffffffffff16021790555050565b828054600181600116156101000203166002900490600052602060002090601f016020900481019282601f10620003bc57805160ff1916838001178555620003ed565b82800160010185558215620003ed579182015b82811115620003ec578251825591602001919060010190620003cf565b5b509050620003fc919062000400565b5090565b6200042591905b808211156200042157600081600090555060010162000407565b5090565b90565b600082601f8301126200043a57600080fd5b8151620004516200044b826200063f565b62000611565b915080825260208301602083018583830111156200046e57600080fd5b6200047b83828462000687565b50505092915050565b6000815190506200049581620006bd565b92915050565b600080600060608486031215620004b157600080fd5b6000620004c18682870162000484565b935050602084015167ffffffffffffffff811115620004df57600080fd5b620004ed8682870162000428565b925050604084015167ffffffffffffffff8111156200050b57600080fd5b620005198682870162000428565b9150509250925092565b6000620005326026836200066c565b91507f4f776e61626c653a206e6577206f776e657220697320746865207a65726f206160008301527f64647265737300000000000000000000000000000000000000000000000000006020830152604082019050919050565b60006200059a6020836200066c565b91507f4f776e61626c653a2063616c6c6572206973206e6f7420746865206f776e65726000830152602082019050919050565b60006020820190508181036000830152620005e88162000523565b9050919050565b600060208201905081810360008301526200060a816200058b565b9050919050565b6000604051905081810181811067ffffffffffffffff821117156200063557600080fd5b8060405250919050565b600067ffffffffffffffff8211156200065757600080fd5b601f19601f8301169050602081019050919050565b600082825260208201905092915050565b6000819050919050565b60005b83811015620006a75780820151818401526020810190506200068a565b83811115620006b7576000848401525b50505050565b620006c8816200067d565b8114620006d457600080fd5b50565b612ac980620006e76000396000f3fe6080604052600436106101185760003560e01c80638da5cb5b116100a0578063cf09e0d011610064578063cf09e0d014610344578063dfbf53ae1461036f578063f2fde38b1461039a578063f6432402146103c3578063fba8a2b4146103ee5761011f565b80638da5cb5b1461026d578063a913eb0814610298578063aa8c217c146102af578063bc28d878146102da578063c7f758a8146103035761011f565b80635c975abb116100e75780635c975abb146101b957806360c5cc3a146101e457806362564c4814610200578063715018a61461022b5780637284e416146102425761011f565b80630a9f46ad1461012157806312065fe01461014c578063280893ee146101775780634a79d50c1461018e5761011f565b3661011f57005b005b34801561012d57600080fd5b50610136610417565b60405161014391906127e3565b60405180910390f35b34801561015857600080fd5b5061016161041d565b60405161016e91906127e3565b60405180910390f35b34801561018357600080fd5b5061018c610425565b005b34801561019a57600080fd5b506101a36105d0565b6040516101b091906126a1565b60405180910390f35b3480156101c557600080fd5b506101ce61066e565b6040516101db919061266b565b60405180910390f35b6101fe60048036038101906101f9919061207d565b610685565b005b34801561020c57600080fd5b50610215610c7f565b6040516102229190612649565b60405180910390f35b34801561023757600080fd5b50610240610f4f565b005b34801561024e57600080fd5b506102576110a4565b60405161026491906126a1565b60405180910390f35b34801561027957600080fd5b50610282611142565b60405161028f9190612593565b60405180910390f35b3480156102a457600080fd5b506102ad61116b565b005b3480156102bb57600080fd5b506102c461136a565b6040516102d191906127e3565b60405180910390f35b3480156102e657600080fd5b5061030160048036038101906102fc919061207d565b611370565b005b34801561030f57600080fd5b5061032a6004803603810190610325919061207d565b6116f9565b60405161033b9594939291906127fe565b60405180910390f35b34801561035057600080fd5b506103596118a1565b60405161036691906127e3565b60405180910390f35b34801561037b57600080fd5b506103846118a7565b60405161039191906125c9565b60405180910390f35b3480156103a657600080fd5b506103c160048036038101906103bc9190611fe8565b6118cd565b005b3480156103cf57600080fd5b506103d8611a91565b6040516103e59190612686565b60405180910390f35b3480156103fa57600080fd5b5061041560048036038101906104109190612011565b611aa4565b005b60035481565b600047905090565b61042d611e36565b73ffffffffffffffffffffffffffffffffffffffff166000809054906101000a900473ffffffffffffffffffffffffffffffffffffffff1673ffffffffffffffffffffffffffffffffffffffff16146104bb576040517f08c379a00000000000000000000000000000000000000000000000000000000081526004016104b290612763565b60405180910390fd5b600260009054906101000a900460ff161561050b576040517f08c379a000000000000000000000000000000000000000000000000000000000815260040161050290612723565b60405180910390fd5b6000600281111561051857fe5b600a60009054906101000a900460ff16600281111561053357fe5b14610573576040517f08c379a000000000000000000000000000000000000000000000000000000000815260040161056a90612703565b60405180910390fd5b6001600a60006101000a81548160ff0219169083600281111561059257fe5b02179055507f2a159c655b5b07db6c48b46390840cfb067813784a8ea4154c45c5e8b8d0d74a306040516105c691906125e4565b60405180910390a1565b60068054600181600116156101000203166002900480601f0160208091040260200160405190810160405280929190818152602001828054600181600116156101000203166002900480156106665780601f1061063b57610100808354040283529160200191610666565b820191906000526020600020905b81548152906001019060200180831161064957829003601f168201915b505050505081565b6000600260009054906101000a900460ff16905090565b61068d611e36565b73ffffffffffffffffffffffffffffffffffffffff166000809054906101000a900473ffffffffffffffffffffffffffffffffffffffff1673ffffffffffffffffffffffffffffffffffffffff161461071b576040517f08c379a000000000000000000000000000000000000000000000000000000000815260040161071290612763565b60405180910390fd5b6000600281111561072857fe5b600a60009054906101000a900460ff16600281111561074357fe5b14610783576040517f08c379a000000000000000000000000000000000000000000000000000000000815260040161077a906126e3565b60405180910390fd5b600260009054906101000a900460ff16156107d3576040517f08c379a00000000000000000000000000000000000000000000000000000000081526004016107ca90612723565b60405180910390fd5b600073ffffffffffffffffffffffffffffffffffffffff166008600083815260200190815260200160002060010160009054906101000a900473ffffffffffffffffffffffffffffffffffffffff1673ffffffffffffffffffffffffffffffffffffffff161415610879576040517f08c379a000000000000000000000000000000000000000000000000000000000815260040161087090612743565b60405180910390fd5b600073ffffffffffffffffffffffffffffffffffffffff16600260019054906101000a900473ffffffffffffffffffffffffffffffffffffffff1673ffffffffffffffffffffffffffffffffffffffff161461090a576040517f08c379a0000000000000000000000000000000000000000000000000000000008152600401610901906127a3565b60405180910390fd5b600060086000838152602001908152602001600020905060016008600084815260200190815260200160002060050160006101000a81548160ff0219169083600281111561095457fe5b02179055506008600083815260200190815260200160002060010160009054906101000a900473ffffffffffffffffffffffffffffffffffffffff16600260016101000a81548173ffffffffffffffffffffffffffffffffffffffff021916908373ffffffffffffffffffffffffffffffffffffffff16021790555060008090505b600980549050811015610b4d57600860008481526020019081526020016000206000015460098281548110610a0757fe5b9060005260206000209060060201600001541415610b40578160098281548110610a2d57fe5b9060005260206000209060060201600082015481600001556001820160009054906101000a900473ffffffffffffffffffffffffffffffffffffffff168160010160006101000a81548173ffffffffffffffffffffffffffffffffffffffff021916908373ffffffffffffffffffffffffffffffffffffffff16021790555060028201816002019080546001816001161561010002031660029004610ad3929190611e3e565b5060038201816003019080546001816001161561010002031660029004610afb929190611e3e565b50600482015481600401556005820160009054906101000a900460ff168160050160006101000a81548160ff02191690836002811115610b3757fe5b02179055509050505b80806001019150506109d6565b506001600a60006101000a81548160ff02191690836002811115610b6d57fe5b02179055506008600083815260200190815260200160002060010160009054906101000a900473ffffffffffffffffffffffffffffffffffffffff1673ffffffffffffffffffffffffffffffffffffffff166108fc6004549081150290604051600060405180830381858888f19350505050158015610bf0573d6000803e3d6000fd5b506008600083815260200190815260200160002060010160009054906101000a900473ffffffffffffffffffffffffffffffffffffffff1673ffffffffffffffffffffffffffffffffffffffff167fc40f9fae79af0e9d59f9ebcb592cf0ccb75b1be4588f5cd2142c84de7e30131b3084600454604051610c7393929190612612565b60405180910390a25050565b6060610c89611e36565b73ffffffffffffffffffffffffffffffffffffffff166000809054906101000a900473ffffffffffffffffffffffffffffffffffffffff1673ffffffffffffffffffffffffffffffffffffffff1614610d17576040517f08c379a0000000000000000000000000000000000000000000000000000000008152600401610d0e90612763565b60405180910390fd5b6009805480602002602001604051908101604052809291908181526020016000905b82821015610f4657838290600052602060002090600602016040518060c0016040529081600082015481526020016001820160009054906101000a900473ffffffffffffffffffffffffffffffffffffffff1673ffffffffffffffffffffffffffffffffffffffff1673ffffffffffffffffffffffffffffffffffffffff168152602001600282018054600181600116156101000203166002900480601f016020809104026020016040519081016040528092919081815260200182805460018160011615610100020316600290048015610e555780601f10610e2a57610100808354040283529160200191610e55565b820191906000526020600020905b815481529060010190602001808311610e3857829003601f168201915b50505050508152602001600382018054600181600116156101000203166002900480601f016020809104026020016040519081016040528092919081815260200182805460018160011615610100020316600290048015610ef75780601f10610ecc57610100808354040283529160200191610ef7565b820191906000526020600020905b815481529060010190602001808311610eda57829003601f168201915b50505050508152602001600482015481526020016005820160009054906101000a900460ff166002811115610f2857fe5b6002811115610f3357fe5b8152505081526020019060010190610d39565b50505050905090565b610f57611e36565b73ffffffffffffffffffffffffffffffffffffffff166000809054906101000a900473ffffffffffffffffffffffffffffffffffffffff1673ffffffffffffffffffffffffffffffffffffffff1614610fe5576040517f08c379a0000000000000000000000000000000000000000000000000000000008152600401610fdc90612763565b60405180910390fd5b600073ffffffffffffffffffffffffffffffffffffffff166000809054906101000a900473ffffffffffffffffffffffffffffffffffffffff1673ffffffffffffffffffffffffffffffffffffffff167f8be0079c531659141344cd1fd0a4f28419497f9722a3daafe3b4186f6b6457e060405160405180910390a360008060006101000a81548173ffffffffffffffffffffffffffffffffffffffff021916908373ffffffffffffffffffffffffffffffffffffffff160217905550565b60058054600181600116156101000203166002900480601f01602080910402602001604051908101604052809291908181526020018280546001816001161561010002031660029004801561113a5780601f1061110f5761010080835404028352916020019161113a565b820191906000526020600020905b81548152906001019060200180831161111d57829003601f168201915b505050505081565b60008060009054906101000a900473ffffffffffffffffffffffffffffffffffffffff16905090565b611173611e36565b73ffffffffffffffffffffffffffffffffffffffff166000809054906101000a900473ffffffffffffffffffffffffffffffffffffffff1673ffffffffffffffffffffffffffffffffffffffff1614611201576040517f08c379a00000000000000000000000000000000000000000000000000000000081526004016111f890612763565b60405180910390fd5b600260009054906101000a900460ff1615611251576040517f08c379a000000000000000000000000000000000000000000000000000000000815260040161124890612723565b60405180910390fd5b6000600281111561125e57fe5b600a60009054906101000a900460ff16600281111561127957fe5b146112b9576040517f08c379a00000000000000000000000000000000000000000000000000000000081526004016112b090612703565b60405180910390fd5b6002600a60006101000a81548160ff021916908360028111156112d857fe5b021790555060006112e7611142565b90508073ffffffffffffffffffffffffffffffffffffffff166108fc479081150290604051600060405180830381858888f1935050505015801561132f573d6000803e3d6000fd5b507ffda78019e9538960455c819c36ecf2bfbf533d94c2e037499dcd01e3a17078613060405161135f91906125ae565b60405180910390a150565b60045481565b611378611e36565b73ffffffffffffffffffffffffffffffffffffffff166000809054906101000a900473ffffffffffffffffffffffffffffffffffffffff1673ffffffffffffffffffffffffffffffffffffffff1614611406576040517f08c379a00000000000000000000000000000000000000000000000000000000081526004016113fd90612763565b60405180910390fd5b6000600281111561141357fe5b600a60009054906101000a900460ff16600281111561142e57fe5b1461146e576040517f08c379a0000000000000000000000000000000000000000000000000000000008152600401611465906126e3565b60405180910390fd5b600260009054906101000a900460ff16156114be576040517f08c379a00000000000000000000000000000000000000000000000000000000081526004016114b590612723565b60405180910390fd5b600060028111156114cb57fe5b6008600083815260200190815260200160002060050160009054906101000a900460ff1660028111156114fa57fe5b1461153a576040517f08c379a000000000000000000000000000000000000000000000000000000000815260040161153190612783565b60405180910390fd5b600060086000838152602001908152602001600020905060028160050160006101000a81548160ff0219169083600281111561157257fe5b021790555060008090505b6009805490508110156116f4576008600084815260200190815260200160002060000154600982815481106115ae57fe5b90600052602060002090600602016000015414156116e75781600982815481106115d457fe5b9060005260206000209060060201600082015481600001556001820160009054906101000a900473ffffffffffffffffffffffffffffffffffffffff168160010160006101000a81548173ffffffffffffffffffffffffffffffffffffffff021916908373ffffffffffffffffffffffffffffffffffffffff1602179055506002820181600201908054600181600116156101000203166002900461167a929190611e3e565b50600382018160030190805460018160011615610100020316600290046116a2929190611e3e565b50600482015481600401556005820160009054906101000a900460ff168160050160006101000a81548160ff021916908360028111156116de57fe5b02179055509050505b808060010191505061157d565b505050565b600080606080600080600860008881526020019081526020016000209050806000015495508060010160009054906101000a900473ffffffffffffffffffffffffffffffffffffffff169450806002018054600181600116156101000203166002900480601f0160208091040260200160405190810160405280929190818152602001828054600181600116156101000203166002900480156117dd5780601f106117b2576101008083540402835291602001916117dd565b820191906000526020600020905b8154815290600101906020018083116117c057829003601f168201915b50505050509350806003018054600181600116156101000203166002900480601f01602080910402602001604051908101604052809291908181526020018280546001816001161561010002031660029004801561187c5780601f106118515761010080835404028352916020019161187c565b820191906000526020600020905b81548152906001019060200180831161185f57829003601f168201915b505050505092508060050160009054906101000a900460ff1691505091939590929450565b60075481565b600260019054906101000a900473ffffffffffffffffffffffffffffffffffffffff1681565b6118d5611e36565b73ffffffffffffffffffffffffffffffffffffffff166000809054906101000a900473ffffffffffffffffffffffffffffffffffffffff1673ffffffffffffffffffffffffffffffffffffffff1614611963576040517f08c379a000000000000000000000000000000000000000000000000000000000815260040161195a90612763565b60405180910390fd5b600073ffffffffffffffffffffffffffffffffffffffff168173ffffffffffffffffffffffffffffffffffffffff1614156119d3576040517f08c379a00000000000000000000000000000000000000000000000000000000081526004016119ca906126c3565b60405180910390fd5b8073ffffffffffffffffffffffffffffffffffffffff166000809054906101000a900473ffffffffffffffffffffffffffffffffffffffff1673ffffffffffffffffffffffffffffffffffffffff167f8be0079c531659141344cd1fd0a4f28419497f9722a3daafe3b4186f6b6457e060405160405180910390a3806000806101000a81548173ffffffffffffffffffffffffffffffffffffffff021916908373ffffffffffffffffffffffffffffffffffffffff16021790555050565b600a60009054906101000a900460ff1681565b60006002811115611ab157fe5b600a60009054906101000a900460ff166002811115611acc57fe5b14611b0c576040517f08c379a0000000000000000000000000000000000000000000000000000000008152600401611b03906126e3565b60405180910390fd5b600260009054906101000a900460ff1615611b5c576040517f08c379a0000000000000000000000000000000000000000000000000000000008152600401611b5390612723565b60405180910390fd5b600073ffffffffffffffffffffffffffffffffffffffff16600260019054906101000a900473ffffffffffffffffffffffffffffffffffffffff1673ffffffffffffffffffffffffffffffffffffffff1614611bed576040517f08c379a0000000000000000000000000000000000000000000000000000000008152600401611be4906127c3565b60405180910390fd5b60036000815480929190600101919050555060006003549050600060086000838152602001908152602001600020905081816000018190555083816002019080519060200190611c3e929190611ec5565b5082816003019080519060200190611c57929190611ec5565b50338160010160006101000a81548173ffffffffffffffffffffffffffffffffffffffff021916908373ffffffffffffffffffffffffffffffffffffffff16021790555060008160050160006101000a81548160ff02191690836002811115611cbc57fe5b02179055504281600401819055506009819080600181540180825580915050600190039060005260206000209060060201600090919091909150600082015481600001556001820160009054906101000a900473ffffffffffffffffffffffffffffffffffffffff168160010160006101000a81548173ffffffffffffffffffffffffffffffffffffffff021916908373ffffffffffffffffffffffffffffffffffffffff16021790555060028201816002019080546001816001161561010002031660029004611d8e929190611e3e565b5060038201816003019080546001816001161561010002031660029004611db6929190611e3e565b50600482015481600401556005820160009054906101000a900460ff168160050160006101000a81548160ff02191690836002811115611df257fe5b021790555050507f05aed0f9e08bd59568a150f02aa524912356d7109fd145147712dc2782d83b6382604051611e2891906127e3565b60405180910390a150505050565b600033905090565b828054600181600116156101000203166002900490600052602060002090601f016020900481019282601f10611e775780548555611eb4565b82800160010185558215611eb457600052602060002091601f016020900482015b82811115611eb3578254825591600101919060010190611e98565b5b509050611ec19190611f45565b5090565b828054600181600116156101000203166002900490600052602060002090601f016020900481019282601f10611f0657805160ff1916838001178555611f34565b82800160010185558215611f34579182015b82811115611f33578251825591602001919060010190611f18565b5b509050611f419190611f45565b5090565b611f6791905b80821115611f63576000816000905550600101611f4b565b5090565b90565b600081359050611f7981612a65565b92915050565b600082601f830112611f9057600080fd5b8135611fa3611f9e8261288c565b61285f565b91508082526020830160208301858383011115611fbf57600080fd5b611fca8382846129f8565b50505092915050565b600081359050611fe281612a7c565b92915050565b600060208284031215611ffa57600080fd5b600061200884828501611f6a565b91505092915050565b6000806040838503121561202457600080fd5b600083013567ffffffffffffffff81111561203e57600080fd5b61204a85828601611f7f565b925050602083013567ffffffffffffffff81111561206757600080fd5b61207385828601611f7f565b9150509250929050565b60006020828403121561208f57600080fd5b600061209d84828501611fd3565b91505092915050565b60006120b283836124e5565b905092915050565b6120c38161299e565b82525050565b6120d281612930565b82525050565b6120e181612930565b82525050565b6120f08161291e565b82525050565b6000612101826128c8565b61210b81856128eb565b93508360208202850161211d856128b8565b8060005b85811015612159578484038952815161213a85826120a6565b9450612145836128de565b925060208a01995050600181019050612121565b50829750879550505050505092915050565b61217481612942565b82525050565b612183816129b0565b82525050565b612192816129b0565b82525050565b6121a1816129c2565b82525050565b60006121b2826128d3565b6121bc81856128fc565b93506121cc818560208601612a07565b6121d581612a3a565b840191505092915050565b60006121eb826128d3565b6121f5818561290d565b9350612205818560208601612a07565b61220e81612a3a565b840191505092915050565b600061222660268361290d565b91507f4f776e61626c653a206e6577206f776e657220697320746865207a65726f206160008301527f64647265737300000000000000000000000000000000000000000000000000006020830152604082019050919050565b600061228c60108361290d565b91507f626f756e747920697320636c6f736564000000000000000000000000000000006000830152602082019050919050565b60006122cc60118361290d565b91507f426f756e74792077617320636c6f7365640000000000000000000000000000006000830152602082019050919050565b600061230c60158361290d565b91507f426f756e747920616c726561647920636c6f73656400000000000000000000006000830152602082019050919050565b600061234c60108361290d565b91507f5061757361626c653a20706175736564000000000000000000000000000000006000830152602082019050919050565b600061238c60208361290d565b91507f596f75206d7573742070726f7669646520612076616c696420616464726573736000830152602082019050919050565b60006123cc60208361290d565b91507f4f776e61626c653a2063616c6c6572206973206e6f7420746865206f776e65726000830152602082019050919050565b600061240c60258361290d565b91507f596f752063616e206f6e6c792063616e63656c2070656e64696e672070726f7060008301527f6f73616c730000000000000000000000000000000000000000000000000000006020830152604082019050919050565b600061247260198361290d565b91507f412077696e6e657220616c7265616479206465636c61726564000000000000006000830152602082019050919050565b60006124b260188361290d565b91507f2057696e6e657220616c7265616479206465636c6172656400000000000000006000830152602082019050919050565b600060c0830160008301516124fd6000860182612575565b50602083015161251060208601826120c9565b506040830151848203604086015261252882826121a7565b9150506060830151848203606086015261254282826121a7565b91505060808301516125576080860182612575565b5060a083015161256a60a086018261217a565b508091505092915050565b61257e81612994565b82525050565b61258d81612994565b82525050565b60006020820190506125a860008301846120e7565b92915050565b60006020820190506125c360008301846120ba565b92915050565b60006020820190506125de60008301846120d8565b92915050565b60006040820190506125f960008301846120ba565b818103602083015261260a816122bf565b905092915050565b600060608201905061262760008301866120ba565b6126346020830185612584565b6126416040830184612584565b949350505050565b6000602082019050818103600083015261266381846120f6565b905092915050565b6000602082019050612680600083018461216b565b92915050565b600060208201905061269b6000830184612198565b92915050565b600060208201905081810360008301526126bb81846121e0565b905092915050565b600060208201905081810360008301526126dc81612219565b9050919050565b600060208201905081810360008301526126fc8161227f565b9050919050565b6000602082019050818103600083015261271c816122ff565b9050919050565b6000602082019050818103600083015261273c8161233f565b9050919050565b6000602082019050818103600083015261275c8161237f565b9050919050565b6000602082019050818103600083015261277c816123bf565b9050919050565b6000602082019050818103600083015261279c816123ff565b9050919050565b600060208201905081810360008301526127bc81612465565b9050919050565b600060208201905081810360008301526127dc816124a5565b9050919050565b60006020820190506127f86000830184612584565b92915050565b600060a0820190506128136000830188612584565b61282060208301876120e7565b818103604083015261283281866121e0565b9050818103606083015261284681856121e0565b90506128556080830184612189565b9695505050505050565b6000604051905081810181811067ffffffffffffffff8211171561288257600080fd5b8060405250919050565b600067ffffffffffffffff8211156128a357600080fd5b601f19601f8301169050602081019050919050565b6000819050602082019050919050565b600081519050919050565b600081519050919050565b6000602082019050919050565b600082825260208201905092915050565b600082825260208201905092915050565b600082825260208201905092915050565b600061292982612974565b9050919050565b600061293b82612974565b9050919050565b60008115159050919050565b600081905061295c82612a4b565b919050565b600081905061296f82612a58565b919050565b600073ffffffffffffffffffffffffffffffffffffffff82169050919050565b6000819050919050565b60006129a9826129d4565b9050919050565b60006129bb8261294e565b9050919050565b60006129cd82612961565b9050919050565b60006129df826129e6565b9050919050565b60006129f182612974565b9050919050565b82818337600083830152505050565b60005b83811015612a25578082015181840152602081019050612a0a565b83811115612a34576000848401525b50505050565b6000601f19601f8301169050919050565b60038110612a5557fe5b50565b60038110612a6257fe5b50565b612a6e8161291e565b8114612a7957600080fd5b50565b612a8581612994565b8114612a9057600080fd5b5056fea2646970667358221220d702bdf9ce4155868c5115201f8d47d848d516491e6c9c99f1970ff6f6854d1b64736f6c634300060500334f776e61626c653a206e6577206f776e657220697320746865207a65726f2061646472657373426f756e746965732073686f756c64206265206d6f7265207468616e206f6666736574a26469706673582212209336f5eb2b31e6fe5d7f5f9ac7947f87848318f403b2db7dbcff6560503e3b3e64736f6c634300060500334f776e61626c653a206e6577206f776e657220697320746865207a65726f2061646472657373",
  "immutableReferences": {},
  "source": "pragma solidity ^0.6.5;\n\nimport \"./BountyV2.sol\";\nimport \"@openzeppelin/contracts/utils/Pausable.sol\";\nimport \"@openzeppelin/contracts/utils/ReentrancyGuard.sol\";\nimport \"@openzeppelin/contracts/access/Ownable.sol\";\nimport \"@openzeppelin/contracts/math/SafeMath.sol\";\n\ncontract BountyFactory is Ownable, Pausable{\n\n    uint public MAXLIMIT = 20;\n\n    address payable admin;\n    mapping(address => bool) public isBountyOwner;\n    mapping(address => Bounty[]) public ownerBounties;\n    Bounty[] private bounties;\n\n    event BountyCreated(address indexed bountyAddress);\n\n    modifier paidEnough(uint _amount) { \n        require(msg.value >= _amount);\n        _;\n    }\n\n    modifier checkValue(uint _amount) {\n    _;\n    uint amountToRefund = msg.value - _amount;\n    if(amountToRefund > 0) msg.sender.transfer(amountToRefund);\n  }\n\n  modifier verifyIsBountyOwner(){\n      require(isBountyOwner[msg.sender], 'You have not created any bounty yet' );\n      _;\n  }\n\n  constructor() public {\n      admin = msg.sender;\n      transferOwnership(admin);\n  }\n\n    function createNewBounty(\n        uint _amount,\n        string memory _title, \n        string memory _desc\n    )   public \n        payable \n        whenNotPaused()\n        paidEnough(_amount)\n        checkValue(_amount)\n    {\n        Bounty bounty = new Bounty( _amount, _title, _desc);\n        address payable bountyAddress = payable(address(bounty));\n        bountyAddress.transfer(_amount);\n        isBountyOwner[msg.sender] = true;\n        ownerBounties[msg.sender].push(bounty);\n        bounties.push(bounty);\n        emit BountyCreated(address(bounty));\n    }\n\n    function getBounties(uint _limit, uint _offset)\n         public \n         view\n         whenNotPaused() \n         returns(Bounty[] memory _bounties)\n        {\n        require(_offset <= bountiesCount(), 'Bounties should be more than offset');\n\n        uint size = bountiesCount() - _offset;\n            size = size < _limit ? size : _limit;\n            size = size < MAXLIMIT ? size : MAXLIMIT;\n            _bounties = new Bounty[](size);\n\n            for(uint i = 0; i < size; i++){\n                _bounties[i] = bounties[_offset + i];\n            }\n        return _bounties;\n    }\n\n    function getMyBounties() public view returns(Bounty[] memory _ownerBounties){\n        _ownerBounties = ownerBounties[msg.sender];\n    }\n\n    function getMyBountiesCount() public view returns(uint _count){\n        _count = ownerBounties[msg.sender].length;\n    }\n\n    function bountiesCount() public view returns(uint){\n        return bounties.length;\n    }\n}",
  "sourcePath": "/home/anthler/Desktop/SMART CONTRACTS/chained-bounties/contracts/BountyFactory.sol",
  "compiler": {
    "name": "solc",
    "version": "0.6.5+commit.f956cc89.Emscripten.clang"
  },
  "schemaVersion": "3.2.0",
  "updatedAt": "2020-08-11T01:35:44.061Z",
  "networkType": "ethereum",
  "devdoc": {
    "methods": {
      "owner()": {
        "details": "Returns the address of the current owner."
      },
      "paused()": {
        "details": "Returns true if the contract is paused, and false otherwise."
      },
      "renounceOwnership()": {
        "details": "Leaves the contract without owner. It will not be possible to call `onlyOwner` functions anymore. Can only be called by the current owner.     * NOTE: Renouncing ownership will leave the contract without an owner, thereby removing any functionality that is only available to the owner."
      },
      "transferOwnership(address)": {
        "details": "Transfers ownership of the contract to a new account (`newOwner`). Can only be called by the current owner."
      }
    }
  },
  "userdoc": {
    "methods": {}
  }
}