{
  "contractName": "Bounty",
  "abi": [
    {
      "inputs": [
        {
          "internalType": "uint256",
          "name": "_amount",
          "type": "uint256"
        },
        {
          "internalType": "string",
          "name": "_title",
          "type": "string"
        },
        {
          "internalType": "string",
          "name": "_desc",
          "type": "string"
        }
      ],
      "payable": true,
      "stateMutability": "payable",
      "type": "constructor"
    },
    {
      "anonymous": false,
      "inputs": [
        {
          "indexed": false,
          "internalType": "uint256",
          "name": "bountyId",
          "type": "uint256"
        },
        {
          "indexed": false,
          "internalType": "uint256",
          "name": "newAmount",
          "type": "uint256"
        }
      ],
      "name": "BountyAmountUpdated",
      "type": "event"
    },
    {
      "anonymous": false,
      "inputs": [
        {
          "indexed": false,
          "internalType": "uint256",
          "name": "bountyId",
          "type": "uint256"
        }
      ],
      "name": "BountyCancelled",
      "type": "event"
    },
    {
      "anonymous": false,
      "inputs": [
        {
          "indexed": false,
          "internalType": "uint256",
          "name": "bountyId",
          "type": "uint256"
        }
      ],
      "name": "BountyDetailsUpdated",
      "type": "event"
    },
    {
      "anonymous": false,
      "inputs": [
        {
          "indexed": false,
          "internalType": "uint256",
          "name": "bountyId",
          "type": "uint256"
        }
      ],
      "name": "BountyResolved",
      "type": "event"
    },
    {
      "anonymous": false,
      "inputs": [
        {
          "indexed": false,
          "internalType": "uint256",
          "name": "bountyId",
          "type": "uint256"
        },
        {
          "indexed": false,
          "internalType": "uint256",
          "name": "proposalId",
          "type": "uint256"
        },
        {
          "indexed": true,
          "internalType": "address",
          "name": "_winner",
          "type": "address"
        },
        {
          "indexed": false,
          "internalType": "uint256",
          "name": "amountToWithdraw",
          "type": "uint256"
        }
      ],
      "name": "ProposalAccepted",
      "type": "event"
    },
    {
      "anonymous": false,
      "inputs": [
        {
          "indexed": false,
          "internalType": "uint256",
          "name": "proposalId",
          "type": "uint256"
        }
      ],
      "name": "ProposalSubmitted",
      "type": "event"
    },
    {
      "payable": false,
      "stateMutability": "nonpayable",
      "type": "fallback"
    },
    {
      "constant": true,
      "inputs": [],
      "name": "amount",
      "outputs": [
        {
          "internalType": "uint256",
          "name": "",
          "type": "uint256"
        }
      ],
      "payable": false,
      "stateMutability": "view",
      "type": "function"
    },
    {
      "constant": true,
      "inputs": [],
      "name": "bountyStatus",
      "outputs": [
        {
          "internalType": "enum Bounty.Status",
          "name": "",
          "type": "uint8"
        }
      ],
      "payable": false,
      "stateMutability": "view",
      "type": "function"
    },
    {
      "constant": true,
      "inputs": [],
      "name": "createdAt",
      "outputs": [
        {
          "internalType": "uint256",
          "name": "",
          "type": "uint256"
        }
      ],
      "payable": false,
      "stateMutability": "view",
      "type": "function"
    },
    {
      "constant": true,
      "inputs": [],
      "name": "description",
      "outputs": [
        {
          "internalType": "string",
          "name": "",
          "type": "string"
        }
      ],
      "payable": false,
      "stateMutability": "view",
      "type": "function"
    },
    {
      "constant": true,
      "inputs": [],
      "name": "poster",
      "outputs": [
        {
          "internalType": "address payable",
          "name": "",
          "type": "address"
        }
      ],
      "payable": false,
      "stateMutability": "view",
      "type": "function"
    },
    {
      "constant": true,
      "inputs": [],
      "name": "proposalsCount",
      "outputs": [
        {
          "internalType": "uint256",
          "name": "",
          "type": "uint256"
        }
      ],
      "payable": false,
      "stateMutability": "view",
      "type": "function"
    },
    {
      "constant": true,
      "inputs": [],
      "name": "title",
      "outputs": [
        {
          "internalType": "string",
          "name": "",
          "type": "string"
        }
      ],
      "payable": false,
      "stateMutability": "view",
      "type": "function"
    },
    {
      "constant": true,
      "inputs": [],
      "name": "winner",
      "outputs": [
        {
          "internalType": "address payable",
          "name": "",
          "type": "address"
        }
      ],
      "payable": false,
      "stateMutability": "view",
      "type": "function"
    },
    {
      "constant": false,
      "inputs": [
        {
          "internalType": "string",
          "name": "link",
          "type": "string"
        },
        {
          "internalType": "string",
          "name": "message",
          "type": "string"
        }
      ],
      "name": "makeProposal",
      "outputs": [
        {
          "internalType": "uint256",
          "name": "_proposalId",
          "type": "uint256"
        }
      ],
      "payable": false,
      "stateMutability": "nonpayable",
      "type": "function"
    },
    {
      "constant": true,
      "inputs": [],
      "name": "getProposals",
      "outputs": [
        {
          "components": [
            {
              "internalType": "uint256",
              "name": "id",
              "type": "uint256"
            },
            {
              "internalType": "address payable",
              "name": "submitter",
              "type": "address"
            },
            {
              "internalType": "string",
              "name": "linkedIn",
              "type": "string"
            },
            {
              "internalType": "string",
              "name": "message",
              "type": "string"
            },
            {
              "internalType": "uint256",
              "name": "createdAt",
              "type": "uint256"
            },
            {
              "internalType": "enum Bounty.ProposalStatus",
              "name": "status",
              "type": "uint8"
            }
          ],
          "internalType": "struct Bounty.Proposal[]",
          "name": "_proposals",
          "type": "tuple[]"
        }
      ],
      "payable": false,
      "stateMutability": "view",
      "type": "function"
    },
    {
      "constant": false,
      "inputs": [
        {
          "internalType": "uint256",
          "name": "proposalId",
          "type": "uint256"
        }
      ],
      "name": "acceptProposal",
      "outputs": [],
      "payable": true,
      "stateMutability": "payable",
      "type": "function"
    },
    {
      "constant": false,
      "inputs": [],
      "name": "closeBounty",
      "outputs": [],
      "payable": false,
      "stateMutability": "nonpayable",
      "type": "function"
    },
    {
      "constant": false,
      "inputs": [
        {
          "internalType": "uint256",
          "name": "proposalId",
          "type": "uint256"
        }
      ],
      "name": "rejectProposal",
      "outputs": [],
      "payable": false,
      "stateMutability": "nonpayable",
      "type": "function"
    },
    {
      "constant": true,
      "inputs": [
        {
          "internalType": "uint256",
          "name": "proposalId",
          "type": "uint256"
        }
      ],
      "name": "getProposal",
      "outputs": [
        {
          "internalType": "uint256",
          "name": "_id",
          "type": "uint256"
        },
        {
          "internalType": "address",
          "name": "_submitter",
          "type": "address"
        },
        {
          "internalType": "string",
          "name": "_linkedIn",
          "type": "string"
        },
        {
          "internalType": "string",
          "name": "_message",
          "type": "string"
        },
        {
          "internalType": "enum Bounty.ProposalStatus",
          "name": "_status",
          "type": "uint8"
        }
      ],
      "payable": false,
      "stateMutability": "view",
      "type": "function"
    }
  ],
  "bytecode": "0x60806040526040516200210e3803806200210e83398181016040526200002991908101906200021e565b326000806101000a81548173ffffffffffffffffffffffffffffffffffffffff021916908373ffffffffffffffffffffffffffffffffffffffff1602179055506000600160006101000a81548173ffffffffffffffffffffffffffffffffffffffff021916908373ffffffffffffffffffffffffffffffffffffffff160217905550826003819055508060049080519060200190620000ca929190620000fc565b508160059080519060200190620000e3929190620000fc565b504260068190555060006002819055505050506200035b565b828054600181600116156101000203166002900490600052602060002090601f016020900481019282601f106200013f57805160ff191683800117855562000170565b8280016001018555821562000170579182015b828111156200016f57825182559160200191906001019062000152565b5b5090506200017f919062000183565b5090565b620001a891905b80821115620001a45760008160009055506001016200018a565b5090565b90565b600082601f830112620001bd57600080fd5b8151620001d4620001ce82620002d4565b620002a6565b91508082526020830160208301858383011115620001f157600080fd5b620001fe8382846200030b565b50505092915050565b600081519050620002188162000341565b92915050565b6000806000606084860312156200023457600080fd5b6000620002448682870162000207565b935050602084015167ffffffffffffffff8111156200026257600080fd5b6200027086828701620001ab565b925050604084015167ffffffffffffffff8111156200028e57600080fd5b6200029c86828701620001ab565b9150509250925092565b6000604051905081810181811067ffffffffffffffff82111715620002ca57600080fd5b8060405250919050565b600067ffffffffffffffff821115620002ec57600080fd5b601f19601f8301169050602081019050919050565b6000819050919050565b60005b838110156200032b5780820151818401526020810190506200030e565b838111156200033b576000848401525b50505050565b6200034c8162000301565b81146200035857600080fd5b50565b611da3806200036b6000396000f3fe6080604052600436106100dd5760003560e01c8063aa8c217c1161007f578063cf09e0d011610059578063cf09e0d01461028b578063dfbf53ae146102b6578063f6432402146102e1578063fba8a2b41461030c576100dd565b8063aa8c217c146101f6578063bc28d87814610221578063c7f758a81461024a576100dd565b806360c5cc3a116100bb57806360c5cc3a1461015957806362564c48146101755780637284e416146101a057806380959721146101cb576100dd565b80630a9f46ad146100ec578063280893ee146101175780634a79d50c1461012e575b3480156100e957600080fd5b50005b3480156100f857600080fd5b50610101610349565b60405161010e9190611afe565b60405180910390f35b34801561012357600080fd5b5061012c61034f565b005b34801561013a57600080fd5b50610143610436565b6040516101509190611a3c565b60405180910390f35b610173600480360361016e9190810190611619565b6104d4565b005b34801561018157600080fd5b5061018a610904565b60405161019791906119ff565b60405180910390f35b3480156101ac57600080fd5b506101b5610b97565b6040516101c29190611a3c565b60405180910390f35b3480156101d757600080fd5b506101e0610c35565b6040516101ed91906119e4565b60405180910390f35b34801561020257600080fd5b5061020b610c5a565b6040516102189190611afe565b60405180910390f35b34801561022d57600080fd5b5061024860048036036102439190810190611619565b610c60565b005b34801561025657600080fd5b50610271600480360361026c9190810190611619565b610f28565b604051610282959493929190611b19565b60405180910390f35b34801561029757600080fd5b506102a06110d0565b6040516102ad9190611afe565b60405180910390f35b3480156102c257600080fd5b506102cb6110d6565b6040516102d891906119e4565b60405180910390f35b3480156102ed57600080fd5b506102f66110fc565b6040516103039190611a21565b60405180910390f35b34801561031857600080fd5b50610333600480360361032e91908101906115ad565b61110f565b6040516103409190611afe565b60405180910390f35b60025481565b6000809054906101000a900473ffffffffffffffffffffffffffffffffffffffff1673ffffffffffffffffffffffffffffffffffffffff163373ffffffffffffffffffffffffffffffffffffffff16146103a857600080fd5b600060028111156103b557fe5b600960009054906101000a900460ff1660028111156103d057fe5b14610410576040517f08c379a000000000000000000000000000000000000000000000000000000000815260040161040790611a5e565b60405180910390fd5b6001600960006101000a81548160ff0219169083600281111561042f57fe5b0217905550565b60058054600181600116156101000203166002900480601f0160208091040260200160405190810160405280929190818152602001828054600181600116156101000203166002900480156104cc5780601f106104a1576101008083540402835291602001916104cc565b820191906000526020600020905b8154815290600101906020018083116104af57829003601f168201915b505050505081565b6000809054906101000a900473ffffffffffffffffffffffffffffffffffffffff168073ffffffffffffffffffffffffffffffffffffffff163373ffffffffffffffffffffffffffffffffffffffff161461052e57600080fd5b6000600281111561053b57fe5b600960009054906101000a900460ff16600281111561055657fe5b1461056057600080fd5b600073ffffffffffffffffffffffffffffffffffffffff166007600084815260200190815260200160002060010160009054906101000a900473ffffffffffffffffffffffffffffffffffffffff1673ffffffffffffffffffffffffffffffffffffffff161415610606576040517f08c379a00000000000000000000000000000000000000000000000000000000081526004016105fd90611a7e565b60405180910390fd5b600073ffffffffffffffffffffffffffffffffffffffff16600160009054906101000a900473ffffffffffffffffffffffffffffffffffffffff1673ffffffffffffffffffffffffffffffffffffffff1614610697576040517f08c379a000000000000000000000000000000000000000000000000000000000815260040161068e90611abe565b60405180910390fd5b60006007600084815260200190815260200160002090506007600084815260200190815260200160002060010160009054906101000a900473ffffffffffffffffffffffffffffffffffffffff16600160006101000a81548173ffffffffffffffffffffffffffffffffffffffff021916908373ffffffffffffffffffffffffffffffffffffffff16021790555060016007600085815260200190815260200160002060050160006101000a81548160ff0219169083600281111561075857fe5b021790555060008090505b6008805490508110156108da5760076000858152602001908152602001600020600001546008828154811061079457fe5b90600052602060002090600602016000015414156108cd5781600882815481106107ba57fe5b9060005260206000209060060201600082015481600001556001820160009054906101000a900473ffffffffffffffffffffffffffffffffffffffff168160010160006101000a81548173ffffffffffffffffffffffffffffffffffffffff021916908373ffffffffffffffffffffffffffffffffffffffff16021790555060028201816002019080546001816001161561010002031660029004610860929190611418565b5060038201816003019080546001816001161561010002031660029004610888929190611418565b50600482015481600401556005820160009054906101000a900460ff168160050160006101000a81548160ff021916908360028111156108c457fe5b02179055509050505b8080600101915050610763565b506001600960006101000a81548160ff021916908360028111156108fa57fe5b0217905550505050565b60606000809054906101000a900473ffffffffffffffffffffffffffffffffffffffff1673ffffffffffffffffffffffffffffffffffffffff163373ffffffffffffffffffffffffffffffffffffffff161461095f57600080fd5b6008805480602002602001604051908101604052809291908181526020016000905b82821015610b8e57838290600052602060002090600602016040518060c0016040529081600082015481526020016001820160009054906101000a900473ffffffffffffffffffffffffffffffffffffffff1673ffffffffffffffffffffffffffffffffffffffff1673ffffffffffffffffffffffffffffffffffffffff168152602001600282018054600181600116156101000203166002900480601f016020809104026020016040519081016040528092919081815260200182805460018160011615610100020316600290048015610a9d5780601f10610a7257610100808354040283529160200191610a9d565b820191906000526020600020905b815481529060010190602001808311610a8057829003601f168201915b50505050508152602001600382018054600181600116156101000203166002900480601f016020809104026020016040519081016040528092919081815260200182805460018160011615610100020316600290048015610b3f5780601f10610b1457610100808354040283529160200191610b3f565b820191906000526020600020905b815481529060010190602001808311610b2257829003601f168201915b50505050508152602001600482015481526020016005820160009054906101000a900460ff166002811115610b7057fe5b6002811115610b7b57fe5b8152505081526020019060010190610981565b50505050905090565b60048054600181600116156101000203166002900480601f016020809104026020016040519081016040528092919081815260200182805460018160011615610100020316600290048015610c2d5780601f10610c0257610100808354040283529160200191610c2d565b820191906000526020600020905b815481529060010190602001808311610c1057829003601f168201915b505050505081565b6000809054906101000a900473ffffffffffffffffffffffffffffffffffffffff1681565b60035481565b6000809054906101000a900473ffffffffffffffffffffffffffffffffffffffff168073ffffffffffffffffffffffffffffffffffffffff163373ffffffffffffffffffffffffffffffffffffffff1614610cba57600080fd5b60006002811115610cc757fe5b600960009054906101000a900460ff166002811115610ce257fe5b14610cec57600080fd5b60006002811115610cf957fe5b6007600084815260200190815260200160002060050160009054906101000a900460ff166002811115610d2857fe5b14610d68576040517f08c379a0000000000000000000000000000000000000000000000000000000008152600401610d5f90611a9e565b60405180910390fd5b600060076000848152602001908152602001600020905060028160050160006101000a81548160ff02191690836002811115610da057fe5b021790555060008090505b600880549050811015610f2257600760008581526020019081526020016000206000015460088281548110610ddc57fe5b9060005260206000209060060201600001541415610f15578160088281548110610e0257fe5b9060005260206000209060060201600082015481600001556001820160009054906101000a900473ffffffffffffffffffffffffffffffffffffffff168160010160006101000a81548173ffffffffffffffffffffffffffffffffffffffff021916908373ffffffffffffffffffffffffffffffffffffffff16021790555060028201816002019080546001816001161561010002031660029004610ea8929190611418565b5060038201816003019080546001816001161561010002031660029004610ed0929190611418565b50600482015481600401556005820160009054906101000a900460ff168160050160006101000a81548160ff02191690836002811115610f0c57fe5b02179055509050505b8080600101915050610dab565b50505050565b600080606080600080600760008881526020019081526020016000209050806000015495508060010160009054906101000a900473ffffffffffffffffffffffffffffffffffffffff169450806002018054600181600116156101000203166002900480601f01602080910402602001604051908101604052809291908181526020018280546001816001161561010002031660029004801561100c5780601f10610fe15761010080835404028352916020019161100c565b820191906000526020600020905b815481529060010190602001808311610fef57829003601f168201915b50505050509350806003018054600181600116156101000203166002900480601f0160208091040260200160405190810160405280929190818152602001828054600181600116156101000203166002900480156110ab5780601f10611080576101008083540402835291602001916110ab565b820191906000526020600020905b81548152906001019060200180831161108e57829003601f168201915b505050505092508060050160009054906101000a900460ff1691505091939590929450565b60065481565b600160009054906101000a900473ffffffffffffffffffffffffffffffffffffffff1681565b600960009054906101000a900460ff1681565b600080600281111561111d57fe5b600960009054906101000a900460ff16600281111561113857fe5b1461114257600080fd5b600073ffffffffffffffffffffffffffffffffffffffff16600160009054906101000a900473ffffffffffffffffffffffffffffffffffffffff1673ffffffffffffffffffffffffffffffffffffffff161480156111c55750600060028111156111a857fe5b600960009054906101000a900460ff1660028111156111c357fe5b145b611204576040517f08c379a00000000000000000000000000000000000000000000000000000000081526004016111fb90611ade565b60405180910390fd5b600260008154809291906001019190505550600254905060006007600083815260200190815260200160002090508181600001819055508381600201908051906020019061125392919061149f565b508281600301908051906020019061126c92919061149f565b50338160010160006101000a81548173ffffffffffffffffffffffffffffffffffffffff021916908373ffffffffffffffffffffffffffffffffffffffff16021790555060008160050160006101000a81548160ff021916908360028111156112d157fe5b021790555042816004018190555060088190806001815401808255809150509060018203906000526020600020906006020160009091929091909150600082015481600001556001820160009054906101000a900473ffffffffffffffffffffffffffffffffffffffff168160010160006101000a81548173ffffffffffffffffffffffffffffffffffffffff021916908373ffffffffffffffffffffffffffffffffffffffff160217905550600282018160020190805460018160011615610100020316600290046113a5929190611418565b50600382018160030190805460018160011615610100020316600290046113cd929190611418565b50600482015481600401556005820160009054906101000a900460ff168160050160006101000a81548160ff0219169083600281111561140957fe5b02179055505050505092915050565b828054600181600116156101000203166002900490600052602060002090601f016020900481019282601f10611451578054855561148e565b8280016001018555821561148e57600052602060002091601f016020900482015b8281111561148d578254825591600101919060010190611472565b5b50905061149b919061151f565b5090565b828054600181600116156101000203166002900490600052602060002090601f016020900481019282601f106114e057805160ff191683800117855561150e565b8280016001018555821561150e579182015b8281111561150d5782518255916020019190600101906114f2565b5b50905061151b919061151f565b5090565b61154191905b8082111561153d576000816000905550600101611525565b5090565b90565b600082601f83011261155557600080fd5b813561156861156382611ba7565b611b7a565b9150808252602083016020830185838301111561158457600080fd5b61158f838284611cdc565b50505092915050565b6000813590506115a781611d49565b92915050565b600080604083850312156115c057600080fd5b600083013567ffffffffffffffff8111156115da57600080fd5b6115e685828601611544565b925050602083013567ffffffffffffffff81111561160357600080fd5b61160f85828601611544565b9150509250929050565b60006020828403121561162b57600080fd5b600061163984828501611598565b91505092915050565b600061164e8383611936565b905092915050565b61165f81611c56565b82525050565b61166e81611c56565b82525050565b61167d81611c44565b82525050565b600061168e82611be3565b6116988185611c11565b9350836020820285016116aa85611bd3565b8060005b858110156116e657848403895281516116c78582611642565b94506116d283611c04565b925060208a019950506001810190506116ae565b50829750879550505050505092915050565b61170181611cb8565b82525050565b61171081611cb8565b82525050565b61171f81611cca565b82525050565b600061173082611bf9565b61173a8185611c33565b935061174a818560208601611ceb565b61175381611d1e565b840191505092915050565b600061176982611bee565b6117738185611c22565b9350611783818560208601611ceb565b61178c81611d1e565b840191505092915050565b60006117a282611bee565b6117ac8185611c33565b93506117bc818560208601611ceb565b6117c581611d1e565b840191505092915050565b60006117dd601583611c33565b91507f426f756e747920616c726561647920636c6f73656400000000000000000000006000830152602082019050919050565b600061181d602083611c33565b91507f596f75206d7573742070726f7669646520612076616c696420616464726573736000830152602082019050919050565b600061185d602583611c33565b91507f596f752063616e206f6e6c792063616e63656c2070656e64696e672070726f7060008301527f6f73616c730000000000000000000000000000000000000000000000000000006020830152604082019050919050565b60006118c3601983611c33565b91507f412077696e6e657220616c7265616479206465636c61726564000000000000006000830152602082019050919050565b6000611903601883611c33565b91507f2057696e6e657220616c7265616479206465636c6172656400000000000000006000830152602082019050919050565b600060c08301600083015161194e60008601826119c6565b5060208301516119616020860182611656565b5060408301518482036040860152611979828261175e565b91505060608301518482036060860152611993828261175e565b91505060808301516119a860808601826119c6565b5060a08301516119bb60a08601826116f8565b508091505092915050565b6119cf81611cae565b82525050565b6119de81611cae565b82525050565b60006020820190506119f96000830184611665565b92915050565b60006020820190508181036000830152611a198184611683565b905092915050565b6000602082019050611a366000830184611716565b92915050565b60006020820190508181036000830152611a568184611797565b905092915050565b60006020820190508181036000830152611a77816117d0565b9050919050565b60006020820190508181036000830152611a9781611810565b9050919050565b60006020820190508181036000830152611ab781611850565b9050919050565b60006020820190508181036000830152611ad7816118b6565b9050919050565b60006020820190508181036000830152611af7816118f6565b9050919050565b6000602082019050611b1360008301846119d5565b92915050565b600060a082019050611b2e60008301886119d5565b611b3b6020830187611674565b8181036040830152611b4d8186611725565b90508181036060830152611b618185611725565b9050611b706080830184611707565b9695505050505050565b6000604051905081810181811067ffffffffffffffff82111715611b9d57600080fd5b8060405250919050565b600067ffffffffffffffff821115611bbe57600080fd5b601f19601f8301169050602081019050919050565b6000819050602082019050919050565b600081519050919050565b600081519050919050565b600081519050919050565b6000602082019050919050565b600082825260208201905092915050565b600082825260208201905092915050565b600082825260208201905092915050565b6000611c4f82611c8e565b9050919050565b6000611c6182611c8e565b9050919050565b6000819050611c7682611d2f565b919050565b6000819050611c8982611d3c565b919050565b600073ffffffffffffffffffffffffffffffffffffffff82169050919050565b6000819050919050565b6000611cc382611c68565b9050919050565b6000611cd582611c7b565b9050919050565b82818337600083830152505050565b60005b83811015611d09578082015181840152602081019050611cee565b83811115611d18576000848401525b50505050565b6000601f19601f8301169050919050565b60038110611d3957fe5b50565b60038110611d4657fe5b50565b611d5281611cae565b8114611d5d57600080fd5b5056fea365627a7a723158208c144380536a47dc40a7d31336b4d58b93859bec34a6433cd46a2bb0c61616e66c6578706572696d656e74616cf564736f6c63430005100040",
  "source": "pragma solidity ^0.5.16;\npragma experimental ABIEncoderV2;\n\ncontract Bounty{\n\n    address payable public poster;\n    address payable public winner;\n\n    uint public proposalsCount;\n    uint public amount;\n    string public description;\n    string public title;\n    uint public createdAt;\n\n    mapping(uint => Proposal) proposals;\n    Proposal[] private proposalsCollection;\n\n    struct Proposal{\n        uint id;\n        address payable submitter;\n        string linkedIn;\n        string message;\n        uint createdAt;\n        ProposalStatus status;\n    }\n\n    enum Status{ Open, Closed, Cancelled}\n    Status public bountyStatus;\n\n    enum ProposalStatus{ Pending, Accepted, Rejected}\n\n    event BountyResolved(uint bountyId);\n    event ProposalSubmitted( uint proposalId);\n    event ProposalAccepted(uint bountyId, uint proposalId, address indexed _winner, uint amountToWithdraw);\n    event BountyCancelled(uint bountyId);\n    event BountyAmountUpdated(uint bountyId, uint newAmount);\n    event BountyDetailsUpdated(uint bountyId);\n    \n    modifier onlyOwner(){ require(msg.sender == poster); _;}\n\n    modifier whenBountyOpen(){ require(bountyStatus == Status.Open); _;}\n\n    modifier verifyCaller (address _address) { require (msg.sender == _address); _; }\n\n    modifier paidEnough(uint _amount) { require(msg.value >= _amount); _; }\n\n    constructor(uint _amount, string memory _title, string memory _desc) public payable { \n\n        poster = tx.origin; \n        winner = address(0);\n        amount = _amount;\n        description = _desc;\n        title = _title;\n        createdAt = now;\n        proposalsCount = 0;\n    }\n    \n    function() external{ }\n\n    function makeProposal(string memory link, string memory message) \n        public \n        whenBountyOpen() \n        returns(uint _proposalId)\n    {\n        require(winner == address(0) && bountyStatus == Status.Open, \" Winner already declared\");\n        proposalsCount++;\n        _proposalId = proposalsCount;\n        Proposal storage proposal = proposals[_proposalId];\n        proposal.id = _proposalId;\n        proposal.linkedIn = link;\n        proposal.message = message;\n        proposal.submitter = msg.sender;\n        proposal.status = ProposalStatus.Pending;\n        proposal.createdAt = now;\n        proposalsCollection.push(proposal);\n        //emit ProposalSubmitted(_proposalId);\n    }\n\n    function getProposals() public view onlyOwner() returns(Proposal[] memory _proposals){\n         _proposals = proposalsCollection;\n    }\n\n    function acceptProposal(uint proposalId)\n        public \n        payable \n        verifyCaller(poster) \n        whenBountyOpen()\n    {\n        require(proposals[proposalId].submitter != address(0), \"You must provide a valid address\");        \n        require(winner == address(0), \"A winner already declared\");\n        Proposal storage proposal = proposals[proposalId];\n        //uint amountToWithdraw = amount;\n        //require(amountToWithdraw <= address(this).balance, \"Insufficient funds available\");\n        winner = proposals[proposalId].submitter;\n        \n        proposals[proposalId].status = ProposalStatus.Accepted;\n        for(uint i = 0; i < proposalsCollection.length; i++){\n            if(proposalsCollection[i].id == proposals[proposalId].id){\n                proposalsCollection[i] = proposal;\n            }\n        }\n        bountyStatus = Status.Closed;\n    }\n\n    function closeBounty() public onlyOwner(){\n        require(bountyStatus == Status.Open, 'Bounty already closed');\n        bountyStatus = Status.Closed;\n    }\n\n    function rejectProposal(uint proposalId) \n        public \n        verifyCaller(poster)\n        whenBountyOpen()\n    {\n        require(proposals[proposalId].status == ProposalStatus.Pending, \"You can only cancel pending proposals\");\n        Proposal storage proposal = proposals[proposalId];\n        proposal.status = ProposalStatus.Rejected;\n        for(uint i = 0; i < proposalsCollection.length; i++){\n            if(proposalsCollection[i].id == proposals[proposalId].id){\n                proposalsCollection[i] = proposal;\n            }\n        }\n    }\n    \n    function getProposal(uint proposalId) \n        public \n        view \n        returns(\n            uint _id,\n            address _submitter,\n            string memory _linkedIn,\n            string memory _message,\n            ProposalStatus _status\n        )\n    {\n            Proposal storage proposal =  proposals[proposalId];\n            _id = proposal.id;\n            _submitter = proposal.submitter;\n            _linkedIn = proposal.linkedIn;\n            _message = proposal.message;\n            _status = proposal.status;\n    }\n}",
  "sourcePath": "/home/richix/Desktop/CONSENSYS-SCHOLAR/BOXES/bounty-dapp/contracts/BountyV2.sol",
  "compiler": {
    "name": "solc",
    "version": "0.5.16+commit.9c3226ce.Emscripten.clang"
  },
  "schemaVersion": "3.0.19",
  "updatedAt": "2020-05-05T20:30:44.402Z",
  "devdoc": {
    "methods": {}
  },
  "userdoc": {
    "methods": {}
  }
}