{
  "contractName": "BountyFactory",
  "abi": [
    {
      "inputs": [],
      "stateMutability": "nonpayable",
      "type": "constructor"
    },
    {
      "anonymous": false,
      "inputs": [
        {
          "indexed": true,
          "internalType": "address",
          "name": "bountyAddress",
          "type": "address"
        }
      ],
      "name": "BountyCreated",
      "type": "event"
    },
    {
      "anonymous": false,
      "inputs": [
        {
          "indexed": true,
          "internalType": "address",
          "name": "previousOwner",
          "type": "address"
        },
        {
          "indexed": true,
          "internalType": "address",
          "name": "newOwner",
          "type": "address"
        }
      ],
      "name": "OwnershipTransferred",
      "type": "event"
    },
    {
      "anonymous": false,
      "inputs": [
        {
          "indexed": false,
          "internalType": "address",
          "name": "account",
          "type": "address"
        }
      ],
      "name": "Paused",
      "type": "event"
    },
    {
      "anonymous": false,
      "inputs": [
        {
          "indexed": false,
          "internalType": "address",
          "name": "account",
          "type": "address"
        }
      ],
      "name": "Unpaused",
      "type": "event"
    },
    {
      "inputs": [],
      "name": "MAXLIMIT",
      "outputs": [
        {
          "internalType": "uint256",
          "name": "",
          "type": "uint256"
        }
      ],
      "stateMutability": "view",
      "type": "function",
      "constant": true
    },
    {
      "inputs": [
        {
          "internalType": "address",
          "name": "",
          "type": "address"
        }
      ],
      "name": "isBountyOwner",
      "outputs": [
        {
          "internalType": "bool",
          "name": "",
          "type": "bool"
        }
      ],
      "stateMutability": "view",
      "type": "function",
      "constant": true
    },
    {
      "inputs": [],
      "name": "owner",
      "outputs": [
        {
          "internalType": "address",
          "name": "",
          "type": "address"
        }
      ],
      "stateMutability": "view",
      "type": "function",
      "constant": true
    },
    {
      "inputs": [
        {
          "internalType": "address",
          "name": "",
          "type": "address"
        },
        {
          "internalType": "uint256",
          "name": "",
          "type": "uint256"
        }
      ],
      "name": "ownerBounties",
      "outputs": [
        {
          "internalType": "contract Bounty",
          "name": "",
          "type": "address"
        }
      ],
      "stateMutability": "view",
      "type": "function",
      "constant": true
    },
    {
      "inputs": [],
      "name": "paused",
      "outputs": [
        {
          "internalType": "bool",
          "name": "",
          "type": "bool"
        }
      ],
      "stateMutability": "view",
      "type": "function",
      "constant": true
    },
    {
      "inputs": [],
      "name": "renounceOwnership",
      "outputs": [],
      "stateMutability": "nonpayable",
      "type": "function"
    },
    {
      "inputs": [
        {
          "internalType": "address",
          "name": "newOwner",
          "type": "address"
        }
      ],
      "name": "transferOwnership",
      "outputs": [],
      "stateMutability": "nonpayable",
      "type": "function"
    },
    {
      "inputs": [
        {
          "internalType": "uint256",
          "name": "_amount",
          "type": "uint256"
        },
        {
          "internalType": "string",
          "name": "_title",
          "type": "string"
        },
        {
          "internalType": "string",
          "name": "_desc",
          "type": "string"
        }
      ],
      "name": "createNewBounty",
      "outputs": [],
      "stateMutability": "payable",
      "type": "function",
      "payable": true
    },
    {
      "inputs": [
        {
          "internalType": "uint256",
          "name": "_limit",
          "type": "uint256"
        },
        {
          "internalType": "uint256",
          "name": "_offset",
          "type": "uint256"
        }
      ],
      "name": "getBounties",
      "outputs": [
        {
          "internalType": "contract Bounty[]",
          "name": "_bounties",
          "type": "address[]"
        }
      ],
      "stateMutability": "view",
      "type": "function",
      "constant": true
    },
    {
      "inputs": [],
      "name": "getMyBounties",
      "outputs": [
        {
          "internalType": "contract Bounty[]",
          "name": "_ownerBounties",
          "type": "address[]"
        }
      ],
      "stateMutability": "view",
      "type": "function",
      "constant": true
    },
    {
      "inputs": [],
      "name": "getMyBountiesCount",
      "outputs": [
        {
          "internalType": "uint256",
          "name": "_count",
          "type": "uint256"
        }
      ],
      "stateMutability": "view",
      "type": "function",
      "constant": true
    },
    {
      "inputs": [],
      "name": "bountiesCount",
      "outputs": [
        {
          "internalType": "uint256",
          "name": "",
          "type": "uint256"
        }
      ],
      "stateMutability": "view",
      "type": "function",
      "constant": true
    }
  ],
  "bytecode": "0x6080604052601460015534801561001557600080fd5b50600061002661015560201b60201c565b9050806000806101000a81548173ffffffffffffffffffffffffffffffffffffffff021916908373ffffffffffffffffffffffffffffffffffffffff1602179055508073ffffffffffffffffffffffffffffffffffffffff16600073ffffffffffffffffffffffffffffffffffffffff167f8be0079c531659141344cd1fd0a4f28419497f9722a3daafe3b4186f6b6457e060405160405180910390a35060008060146101000a81548160ff02191690831515021790555033600260006101000a81548173ffffffffffffffffffffffffffffffffffffffff021916908373ffffffffffffffffffffffffffffffffffffffff160217905550610150600260009054906101000a900473ffffffffffffffffffffffffffffffffffffffff1661015d60201b60201c565b610371565b600033905090565b61016b61015560201b60201c565b73ffffffffffffffffffffffffffffffffffffffff166000809054906101000a900473ffffffffffffffffffffffffffffffffffffffff1673ffffffffffffffffffffffffffffffffffffffff161461022c576040517f08c379a00000000000000000000000000000000000000000000000000000000081526004018080602001828103825260208152602001807f4f776e61626c653a2063616c6c6572206973206e6f7420746865206f776e657281525060200191505060405180910390fd5b600073ffffffffffffffffffffffffffffffffffffffff168173ffffffffffffffffffffffffffffffffffffffff1614156102b3576040517f08c379a0000000000000000000000000000000000000000000000000000000008152600401808060200182810382526026815260200180620046666026913960400191505060405180910390fd5b8073ffffffffffffffffffffffffffffffffffffffff166000809054906101000a900473ffffffffffffffffffffffffffffffffffffffff1673ffffffffffffffffffffffffffffffffffffffff167f8be0079c531659141344cd1fd0a4f28419497f9722a3daafe3b4186f6b6457e060405160405180910390a3806000806101000a81548173ffffffffffffffffffffffffffffffffffffffff021916908373ffffffffffffffffffffffffffffffffffffffff16021790555050565b6142e580620003816000396000f3fe608060405260043610620000b65760003560e01c80638da5cb5b116200006d5780638da5cb5b14620002a25780639509bf5c14620002fc57806395f1967f1462000369578063d6f301611462000397578063f2fde38b14620004fc578063f476861f146200055157620000b6565b80630bbefd5414620000bb5780630d679fd214620000e957806313b32e9714620001885780633d3b5dab14620001b65780635c975abb1462000256578063715018a61462000288575b600080fd5b348015620000c857600080fd5b50620000d3620005c2565b6040518082815260200191505060405180910390f35b348015620000f657600080fd5b5062000146600480360360408110156200010f57600080fd5b81019080803573ffffffffffffffffffffffffffffffffffffffff16906020019092919080359060200190929190505050620005c8565b604051808273ffffffffffffffffffffffffffffffffffffffff1673ffffffffffffffffffffffffffffffffffffffff16815260200191505060405180910390f35b3480156200019557600080fd5b50620001a062000614565b6040518082815260200191505060405180910390f35b348015620001c357600080fd5b50620001fd60048036036040811015620001dc57600080fd5b81019080803590602001909291908035906020019092919050505062000621565b6040518080602001828103825283818151815260200191508051906020019060200280838360005b838110156200024257808201518184015260208101905062000225565b505050509050019250505060405180910390f35b3480156200026357600080fd5b506200026e6200083a565b604051808215151515815260200191505060405180910390f35b3480156200029557600080fd5b50620002a062000850565b005b348015620002af57600080fd5b50620002ba620009db565b604051808273ffffffffffffffffffffffffffffffffffffffff1673ffffffffffffffffffffffffffffffffffffffff16815260200191505060405180910390f35b3480156200030957600080fd5b506200034f600480360360208110156200032257600080fd5b81019080803573ffffffffffffffffffffffffffffffffffffffff16906020019092919050505062000a04565b604051808215151515815260200191505060405180910390f35b3480156200037657600080fd5b506200038162000a24565b6040518082815260200191505060405180910390f35b620004fa60048036036060811015620003af57600080fd5b810190808035906020019092919080359060200190640100000000811115620003d757600080fd5b820183602082011115620003ea57600080fd5b803590602001918460018302840111640100000000831117156200040d57600080fd5b91908080601f016020809104026020016040519081016040528093929190818152602001838380828437600081840152601f19601f820116905080830192505050505050509192919290803590602001906401000000008111156200047157600080fd5b8201836020820111156200048457600080fd5b80359060200191846001830284011164010000000083111715620004a757600080fd5b91908080601f016020809104026020016040519081016040528093929190818152602001838380828437600081840152601f19601f82011690508083019250505050505050919291929050505062000a6e565b005b3480156200050957600080fd5b506200054f600480360360208110156200052257600080fd5b81019080803573ffffffffffffffffffffffffffffffffffffffff16906020019092919050505062000e6c565b005b3480156200055e57600080fd5b50620005696200107e565b6040518080602001828103825283818151815260200191508051906020019060200280838360005b83811015620005ae57808201518184015260208101905062000591565b505050509050019250505060405180910390f35b60015481565b60046020528160005260406000208181548110620005e257fe5b906000526020600020016000915091509054906101000a900473ffffffffffffffffffffffffffffffffffffffff1681565b6000600580549050905090565b6060600060149054906101000a900460ff1615620006a7576040517f08c379a00000000000000000000000000000000000000000000000000000000081526004018080602001828103825260108152602001807f5061757361626c653a207061757365640000000000000000000000000000000081525060200191505060405180910390fd5b620006b162000614565b8211156200070b576040517f08c379a00000000000000000000000000000000000000000000000000000000081526004018080602001828103825260238152602001806200428d6023913960400191505060405180910390fd5b6000826200071862000614565b0390508381106200072a57836200072c565b805b90506001548110620007415760015462000743565b805b90508067ffffffffffffffff811180156200075d57600080fd5b506040519080825280602002602001820160405280156200078d5781602001602082028036833780820191505090505b50915060008090505b818110156200082f57600581850181548110620007af57fe5b9060005260206000200160009054906101000a900473ffffffffffffffffffffffffffffffffffffffff16838281518110620007e757fe5b602002602001019073ffffffffffffffffffffffffffffffffffffffff16908173ffffffffffffffffffffffffffffffffffffffff1681525050808060010191505062000796565b508191505092915050565b60008060149054906101000a900460ff16905090565b6200085a6200114b565b73ffffffffffffffffffffffffffffffffffffffff166000809054906101000a900473ffffffffffffffffffffffffffffffffffffffff1673ffffffffffffffffffffffffffffffffffffffff16146200091c576040517f08c379a00000000000000000000000000000000000000000000000000000000081526004018080602001828103825260208152602001807f4f776e61626c653a2063616c6c6572206973206e6f7420746865206f776e657281525060200191505060405180910390fd5b600073ffffffffffffffffffffffffffffffffffffffff166000809054906101000a900473ffffffffffffffffffffffffffffffffffffffff1673ffffffffffffffffffffffffffffffffffffffff167f8be0079c531659141344cd1fd0a4f28419497f9722a3daafe3b4186f6b6457e060405160405180910390a360008060006101000a81548173ffffffffffffffffffffffffffffffffffffffff021916908373ffffffffffffffffffffffffffffffffffffffff160217905550565b60008060009054906101000a900473ffffffffffffffffffffffffffffffffffffffff16905090565b60036020528060005260406000206000915054906101000a900460ff1681565b6000600460003373ffffffffffffffffffffffffffffffffffffffff1673ffffffffffffffffffffffffffffffffffffffff16815260200190815260200160002080549050905090565b600060149054906101000a900460ff161562000af2576040517f08c379a00000000000000000000000000000000000000000000000000000000081526004018080602001828103825260108152602001807f5061757361626c653a207061757365640000000000000000000000000000000081525060200191505060405180910390fd5b828034101562000b0157600080fd5b83600085858560405162000b159062001153565b808481526020018060200180602001838103835285818151815260200191508051906020019080838360005b8381101562000b5e57808201518184015260208101905062000b41565b50505050905090810190601f16801562000b8c5780820380516001836020036101000a031916815260200191505b50838103825284818151815260200191508051906020019080838360005b8381101562000bc757808201518184015260208101905062000baa565b50505050905090810190601f16801562000bf55780820380516001836020036101000a031916815260200191505b5095505050505050604051809103906000f08015801562000c1a573d6000803e3d6000fd5b50905060008190508073ffffffffffffffffffffffffffffffffffffffff166108fc889081150290604051600060405180830381858888f1935050505015801562000c69573d6000803e3d6000fd5b506001600360003373ffffffffffffffffffffffffffffffffffffffff1673ffffffffffffffffffffffffffffffffffffffff16815260200190815260200160002060006101000a81548160ff021916908315150217905550600460003373ffffffffffffffffffffffffffffffffffffffff1673ffffffffffffffffffffffffffffffffffffffff168152602001908152602001600020829080600181540180825580915050600190039060005260206000200160009091909190916101000a81548173ffffffffffffffffffffffffffffffffffffffff021916908373ffffffffffffffffffffffffffffffffffffffff1602179055506005829080600181540180825580915050600190039060005260206000200160009091909190916101000a81548173ffffffffffffffffffffffffffffffffffffffff021916908373ffffffffffffffffffffffffffffffffffffffff1602179055508173ffffffffffffffffffffffffffffffffffffffff167f296fd2c434595e170589ead76f71af701ab651dd12e03e8c108123ec7c809a7360405160405180910390a2505060008134039050600081111562000e64573373ffffffffffffffffffffffffffffffffffffffff166108fc829081150290604051600060405180830381858888f1935050505015801562000e62573d6000803e3d6000fd5b505b505050505050565b62000e766200114b565b73ffffffffffffffffffffffffffffffffffffffff166000809054906101000a900473ffffffffffffffffffffffffffffffffffffffff1673ffffffffffffffffffffffffffffffffffffffff161462000f38576040517f08c379a00000000000000000000000000000000000000000000000000000000081526004018080602001828103825260208152602001807f4f776e61626c653a2063616c6c6572206973206e6f7420746865206f776e657281525060200191505060405180910390fd5b600073ffffffffffffffffffffffffffffffffffffffff168173ffffffffffffffffffffffffffffffffffffffff16141562000fc0576040517f08c379a0000000000000000000000000000000000000000000000000000000008152600401808060200182810382526026815260200180620042676026913960400191505060405180910390fd5b8073ffffffffffffffffffffffffffffffffffffffff166000809054906101000a900473ffffffffffffffffffffffffffffffffffffffff1673ffffffffffffffffffffffffffffffffffffffff167f8be0079c531659141344cd1fd0a4f28419497f9722a3daafe3b4186f6b6457e060405160405180910390a3806000806101000a81548173ffffffffffffffffffffffffffffffffffffffff021916908373ffffffffffffffffffffffffffffffffffffffff16021790555050565b6060600460003373ffffffffffffffffffffffffffffffffffffffff1673ffffffffffffffffffffffffffffffffffffffff1681526020019081526020016000208054806020026020016040519081016040528092919081815260200182805480156200114157602002820191906000526020600020905b8160009054906101000a900473ffffffffffffffffffffffffffffffffffffffff1673ffffffffffffffffffffffffffffffffffffffff1681526020019060010190808311620010f6575b5050505050905090565b600033905090565b61310580620011628339019056fe608060405260405162003105380380620031058339818101604052810190620000299190620004ae565b60006200003b620001b260201b60201c565b9050806000806101000a81548173ffffffffffffffffffffffffffffffffffffffff021916908373ffffffffffffffffffffffffffffffffffffffff1602179055508073ffffffffffffffffffffffffffffffffffffffff16600073ffffffffffffffffffffffffffffffffffffffff167f8be0079c531659141344cd1fd0a4f28419497f9722a3daafe3b4186f6b6457e060405160405180910390a3506001600060146101000a81548160ff02191690831515021790555060008060156101000a81548160ff0219169083151502179055506200011f32620001ba60201b60201c565b6000600160006101000a81548173ffffffffffffffffffffffffffffffffffffffff021916908373ffffffffffffffffffffffffffffffffffffffff160217905550826003819055508060049080519060200190620001809291906200038c565b508160059080519060200190620001999291906200038c565b50426006819055506000600281905550505050620006ea565b600033905090565b620001ca620001b260201b60201c565b73ffffffffffffffffffffffffffffffffffffffff166000809054906101000a900473ffffffffffffffffffffffffffffffffffffffff1673ffffffffffffffffffffffffffffffffffffffff16146200025b576040517f08c379a0000000000000000000000000000000000000000000000000000000008152600401620002529062000602565b60405180910390fd5b600073ffffffffffffffffffffffffffffffffffffffff168173ffffffffffffffffffffffffffffffffffffffff161415620002ce576040517f08c379a0000000000000000000000000000000000000000000000000000000008152600401620002c590620005e0565b60405180910390fd5b8073ffffffffffffffffffffffffffffffffffffffff166000809054906101000a900473ffffffffffffffffffffffffffffffffffffffff1673ffffffffffffffffffffffffffffffffffffffff167f8be0079c531659141344cd1fd0a4f28419497f9722a3daafe3b4186f6b6457e060405160405180910390a3806000806101000a81548173ffffffffffffffffffffffffffffffffffffffff021916908373ffffffffffffffffffffffffffffffffffffffff16021790555050565b828054600181600116156101000203166002900490600052602060002090601f016020900481019282601f10620003cf57805160ff191683800117855562000400565b8280016001018555821562000400579182015b82811115620003ff578251825591602001919060010190620003e2565b5b5090506200040f919062000413565b5090565b6200043891905b80821115620004345760008160009055506001016200041a565b5090565b90565b600082601f8301126200044d57600080fd5b8151620004646200045e8262000652565b62000624565b915080825260208301602083018583830111156200048157600080fd5b6200048e8382846200069a565b50505092915050565b600081519050620004a881620006d0565b92915050565b600080600060608486031215620004c457600080fd5b6000620004d48682870162000497565b935050602084015167ffffffffffffffff811115620004f257600080fd5b62000500868287016200043b565b925050604084015167ffffffffffffffff8111156200051e57600080fd5b6200052c868287016200043b565b9150509250925092565b6000620005456026836200067f565b91507f4f776e61626c653a206e6577206f776e657220697320746865207a65726f206160008301527f64647265737300000000000000000000000000000000000000000000000000006020830152604082019050919050565b6000620005ad6020836200067f565b91507f4f776e61626c653a2063616c6c6572206973206e6f7420746865206f776e65726000830152602082019050919050565b60006020820190508181036000830152620005fb8162000536565b9050919050565b600060208201905081810360008301526200061d816200059e565b9050919050565b6000604051905081810181811067ffffffffffffffff821117156200064857600080fd5b8060405250919050565b600067ffffffffffffffff8211156200066a57600080fd5b601f19601f8301169050602081019050919050565b600082825260208201905092915050565b6000819050919050565b60005b83811015620006ba5780820151818401526020810190506200069d565b83811115620006ca576000848401525b50505050565b620006db8162000690565b8114620006e757600080fd5b50565b612a0b80620006fa6000396000f3fe6080604052600436106101185760003560e01c80638da5cb5b116100a0578063cf09e0d011610064578063cf09e0d014610344578063dfbf53ae1461036f578063f2fde38b1461039a578063f6432402146103c3578063fba8a2b4146103ee5761011f565b80638da5cb5b1461026d578063a913eb0814610298578063aa8c217c146102af578063bc28d878146102da578063c7f758a8146103035761011f565b80635c975abb116100e75780635c975abb146101b957806360c5cc3a146101e457806362564c4814610200578063715018a61461022b5780637284e416146102425761011f565b80630a9f46ad1461012157806312065fe01461014c578063280893ee146101775780634a79d50c1461018e5761011f565b3661011f57005b005b34801561012d57600080fd5b5061013661042b565b6040516101439190612725565b60405180910390f35b34801561015857600080fd5b50610161610431565b60405161016e9190612725565b60405180910390f35b34801561018357600080fd5b5061018c610439565b005b34801561019a57600080fd5b506101a36105e4565b6040516101b09190612603565b60405180910390f35b3480156101c557600080fd5b506101ce610682565b6040516101db91906125cd565b60405180910390f35b6101fe60048036038101906101f9919061201f565b610698565b005b34801561020c57600080fd5b50610215610c5c565b60405161022291906125ab565b60405180910390f35b34801561023757600080fd5b50610240610f2c565b005b34801561024e57600080fd5b50610257611081565b6040516102649190612603565b60405180910390f35b34801561027957600080fd5b5061028261111f565b60405161028f91906124f5565b60405180910390f35b3480156102a457600080fd5b506102ad611148565b005b3480156102bb57600080fd5b506102c4611347565b6040516102d19190612725565b60405180910390f35b3480156102e657600080fd5b5061030160048036038101906102fc919061201f565b61134d565b005b34801561030f57600080fd5b5061032a6004803603810190610325919061201f565b6116a0565b60405161033b959493929190612740565b60405180910390f35b34801561035057600080fd5b50610359611848565b6040516103669190612725565b60405180910390f35b34801561037b57600080fd5b5061038461184e565b604051610391919061252b565b60405180910390f35b3480156103a657600080fd5b506103c160048036038101906103bc9190611f8a565b611874565b005b3480156103cf57600080fd5b506103d8611a38565b6040516103e591906125e8565b60405180910390f35b3480156103fa57600080fd5b5061041560048036038101906104109190611fb3565b611a4b565b6040516104229190612725565b60405180910390f35b60025481565b600047905090565b610441611dd8565b73ffffffffffffffffffffffffffffffffffffffff166000809054906101000a900473ffffffffffffffffffffffffffffffffffffffff1673ffffffffffffffffffffffffffffffffffffffff16146104cf576040517f08c379a00000000000000000000000000000000000000000000000000000000081526004016104c6906126a5565b60405180910390fd5b600060159054906101000a900460ff161561051f576040517f08c379a000000000000000000000000000000000000000000000000000000000815260040161051690612665565b60405180910390fd5b6000600281111561052c57fe5b600960009054906101000a900460ff16600281111561054757fe5b14610587576040517f08c379a000000000000000000000000000000000000000000000000000000000815260040161057e90612645565b60405180910390fd5b6001600960006101000a81548160ff021916908360028111156105a657fe5b02179055507f2a159c655b5b07db6c48b46390840cfb067813784a8ea4154c45c5e8b8d0d74a306040516105da9190612546565b60405180910390a1565b60058054600181600116156101000203166002900480601f01602080910402602001604051908101604052809291908181526020018280546001816001161561010002031660029004801561067a5780601f1061064f5761010080835404028352916020019161067a565b820191906000526020600020905b81548152906001019060200180831161065d57829003601f168201915b505050505081565b60008060159054906101000a900460ff16905090565b6106a0611dd8565b73ffffffffffffffffffffffffffffffffffffffff166000809054906101000a900473ffffffffffffffffffffffffffffffffffffffff1673ffffffffffffffffffffffffffffffffffffffff161461072e576040517f08c379a0000000000000000000000000000000000000000000000000000000008152600401610725906126a5565b60405180910390fd5b6000600281111561073b57fe5b600960009054906101000a900460ff16600281111561075657fe5b1461076057600080fd5b600060159054906101000a900460ff16156107b0576040517f08c379a00000000000000000000000000000000000000000000000000000000081526004016107a790612665565b60405180910390fd5b600073ffffffffffffffffffffffffffffffffffffffff166007600083815260200190815260200160002060010160009054906101000a900473ffffffffffffffffffffffffffffffffffffffff1673ffffffffffffffffffffffffffffffffffffffff161415610856576040517f08c379a000000000000000000000000000000000000000000000000000000000815260040161084d90612685565b60405180910390fd5b600073ffffffffffffffffffffffffffffffffffffffff16600160009054906101000a900473ffffffffffffffffffffffffffffffffffffffff1673ffffffffffffffffffffffffffffffffffffffff16146108e7576040517f08c379a00000000000000000000000000000000000000000000000000000000081526004016108de906126e5565b60405180910390fd5b600060076000838152602001908152602001600020905060016007600084815260200190815260200160002060050160006101000a81548160ff0219169083600281111561093157fe5b02179055506007600083815260200190815260200160002060010160009054906101000a900473ffffffffffffffffffffffffffffffffffffffff16600160006101000a81548173ffffffffffffffffffffffffffffffffffffffff021916908373ffffffffffffffffffffffffffffffffffffffff16021790555060008090505b600880549050811015610b2a576007600084815260200190815260200160002060000154600882815481106109e457fe5b9060005260206000209060060201600001541415610b1d578160088281548110610a0a57fe5b9060005260206000209060060201600082015481600001556001820160009054906101000a900473ffffffffffffffffffffffffffffffffffffffff168160010160006101000a81548173ffffffffffffffffffffffffffffffffffffffff021916908373ffffffffffffffffffffffffffffffffffffffff16021790555060028201816002019080546001816001161561010002031660029004610ab0929190611de0565b5060038201816003019080546001816001161561010002031660029004610ad8929190611de0565b50600482015481600401556005820160009054906101000a900460ff168160050160006101000a81548160ff02191690836002811115610b1457fe5b02179055509050505b80806001019150506109b3565b506001600960006101000a81548160ff02191690836002811115610b4a57fe5b02179055506007600083815260200190815260200160002060010160009054906101000a900473ffffffffffffffffffffffffffffffffffffffff1673ffffffffffffffffffffffffffffffffffffffff166108fc6003549081150290604051600060405180830381858888f19350505050158015610bcd573d6000803e3d6000fd5b506007600083815260200190815260200160002060010160009054906101000a900473ffffffffffffffffffffffffffffffffffffffff1673ffffffffffffffffffffffffffffffffffffffff167fc40f9fae79af0e9d59f9ebcb592cf0ccb75b1be4588f5cd2142c84de7e30131b3084600354604051610c5093929190612574565b60405180910390a25050565b6060610c66611dd8565b73ffffffffffffffffffffffffffffffffffffffff166000809054906101000a900473ffffffffffffffffffffffffffffffffffffffff1673ffffffffffffffffffffffffffffffffffffffff1614610cf4576040517f08c379a0000000000000000000000000000000000000000000000000000000008152600401610ceb906126a5565b60405180910390fd5b6008805480602002602001604051908101604052809291908181526020016000905b82821015610f2357838290600052602060002090600602016040518060c0016040529081600082015481526020016001820160009054906101000a900473ffffffffffffffffffffffffffffffffffffffff1673ffffffffffffffffffffffffffffffffffffffff1673ffffffffffffffffffffffffffffffffffffffff168152602001600282018054600181600116156101000203166002900480601f016020809104026020016040519081016040528092919081815260200182805460018160011615610100020316600290048015610e325780601f10610e0757610100808354040283529160200191610e32565b820191906000526020600020905b815481529060010190602001808311610e1557829003601f168201915b50505050508152602001600382018054600181600116156101000203166002900480601f016020809104026020016040519081016040528092919081815260200182805460018160011615610100020316600290048015610ed45780601f10610ea957610100808354040283529160200191610ed4565b820191906000526020600020905b815481529060010190602001808311610eb757829003601f168201915b50505050508152602001600482015481526020016005820160009054906101000a900460ff166002811115610f0557fe5b6002811115610f1057fe5b8152505081526020019060010190610d16565b50505050905090565b610f34611dd8565b73ffffffffffffffffffffffffffffffffffffffff166000809054906101000a900473ffffffffffffffffffffffffffffffffffffffff1673ffffffffffffffffffffffffffffffffffffffff1614610fc2576040517f08c379a0000000000000000000000000000000000000000000000000000000008152600401610fb9906126a5565b60405180910390fd5b600073ffffffffffffffffffffffffffffffffffffffff166000809054906101000a900473ffffffffffffffffffffffffffffffffffffffff1673ffffffffffffffffffffffffffffffffffffffff167f8be0079c531659141344cd1fd0a4f28419497f9722a3daafe3b4186f6b6457e060405160405180910390a360008060006101000a81548173ffffffffffffffffffffffffffffffffffffffff021916908373ffffffffffffffffffffffffffffffffffffffff160217905550565b60048054600181600116156101000203166002900480601f0160208091040260200160405190810160405280929190818152602001828054600181600116156101000203166002900480156111175780601f106110ec57610100808354040283529160200191611117565b820191906000526020600020905b8154815290600101906020018083116110fa57829003601f168201915b505050505081565b60008060009054906101000a900473ffffffffffffffffffffffffffffffffffffffff16905090565b611150611dd8565b73ffffffffffffffffffffffffffffffffffffffff166000809054906101000a900473ffffffffffffffffffffffffffffffffffffffff1673ffffffffffffffffffffffffffffffffffffffff16146111de576040517f08c379a00000000000000000000000000000000000000000000000000000000081526004016111d5906126a5565b60405180910390fd5b600060159054906101000a900460ff161561122e576040517f08c379a000000000000000000000000000000000000000000000000000000000815260040161122590612665565b60405180910390fd5b6000600281111561123b57fe5b600960009054906101000a900460ff16600281111561125657fe5b14611296576040517f08c379a000000000000000000000000000000000000000000000000000000000815260040161128d90612645565b60405180910390fd5b6002600960006101000a81548160ff021916908360028111156112b557fe5b021790555060006112c461111f565b90508073ffffffffffffffffffffffffffffffffffffffff166108fc479081150290604051600060405180830381858888f1935050505015801561130c573d6000803e3d6000fd5b507ffda78019e9538960455c819c36ecf2bfbf533d94c2e037499dcd01e3a17078613060405161133c9190612510565b60405180910390a150565b60035481565b611355611dd8565b73ffffffffffffffffffffffffffffffffffffffff166000809054906101000a900473ffffffffffffffffffffffffffffffffffffffff1673ffffffffffffffffffffffffffffffffffffffff16146113e3576040517f08c379a00000000000000000000000000000000000000000000000000000000081526004016113da906126a5565b60405180910390fd5b600060028111156113f057fe5b600960009054906101000a900460ff16600281111561140b57fe5b1461141557600080fd5b600060159054906101000a900460ff1615611465576040517f08c379a000000000000000000000000000000000000000000000000000000000815260040161145c90612665565b60405180910390fd5b6000600281111561147257fe5b6007600083815260200190815260200160002060050160009054906101000a900460ff1660028111156114a157fe5b146114e1576040517f08c379a00000000000000000000000000000000000000000000000000000000081526004016114d8906126c5565b60405180910390fd5b600060076000838152602001908152602001600020905060028160050160006101000a81548160ff0219169083600281111561151957fe5b021790555060008090505b60088054905081101561169b5760076000848152602001908152602001600020600001546008828154811061155557fe5b906000526020600020906006020160000154141561168e57816008828154811061157b57fe5b9060005260206000209060060201600082015481600001556001820160009054906101000a900473ffffffffffffffffffffffffffffffffffffffff168160010160006101000a81548173ffffffffffffffffffffffffffffffffffffffff021916908373ffffffffffffffffffffffffffffffffffffffff16021790555060028201816002019080546001816001161561010002031660029004611621929190611de0565b5060038201816003019080546001816001161561010002031660029004611649929190611de0565b50600482015481600401556005820160009054906101000a900460ff168160050160006101000a81548160ff0219169083600281111561168557fe5b02179055509050505b8080600101915050611524565b505050565b600080606080600080600760008881526020019081526020016000209050806000015495508060010160009054906101000a900473ffffffffffffffffffffffffffffffffffffffff169450806002018054600181600116156101000203166002900480601f0160208091040260200160405190810160405280929190818152602001828054600181600116156101000203166002900480156117845780601f1061175957610100808354040283529160200191611784565b820191906000526020600020905b81548152906001019060200180831161176757829003601f168201915b50505050509350806003018054600181600116156101000203166002900480601f0160208091040260200160405190810160405280929190818152602001828054600181600116156101000203166002900480156118235780601f106117f857610100808354040283529160200191611823565b820191906000526020600020905b81548152906001019060200180831161180657829003601f168201915b505050505092508060050160009054906101000a900460ff1691505091939590929450565b60065481565b600160009054906101000a900473ffffffffffffffffffffffffffffffffffffffff1681565b61187c611dd8565b73ffffffffffffffffffffffffffffffffffffffff166000809054906101000a900473ffffffffffffffffffffffffffffffffffffffff1673ffffffffffffffffffffffffffffffffffffffff161461190a576040517f08c379a0000000000000000000000000000000000000000000000000000000008152600401611901906126a5565b60405180910390fd5b600073ffffffffffffffffffffffffffffffffffffffff168173ffffffffffffffffffffffffffffffffffffffff16141561197a576040517f08c379a000000000000000000000000000000000000000000000000000000000815260040161197190612625565b60405180910390fd5b8073ffffffffffffffffffffffffffffffffffffffff166000809054906101000a900473ffffffffffffffffffffffffffffffffffffffff1673ffffffffffffffffffffffffffffffffffffffff167f8be0079c531659141344cd1fd0a4f28419497f9722a3daafe3b4186f6b6457e060405160405180910390a3806000806101000a81548173ffffffffffffffffffffffffffffffffffffffff021916908373ffffffffffffffffffffffffffffffffffffffff16021790555050565b600960009054906101000a900460ff1681565b6000806002811115611a5957fe5b600960009054906101000a900460ff166002811115611a7457fe5b14611a7e57600080fd5b600060159054906101000a900460ff1615611ace576040517f08c379a0000000000000000000000000000000000000000000000000000000008152600401611ac590612665565b60405180910390fd5b600073ffffffffffffffffffffffffffffffffffffffff16600160009054906101000a900473ffffffffffffffffffffffffffffffffffffffff1673ffffffffffffffffffffffffffffffffffffffff16148015611b51575060006002811115611b3457fe5b600960009054906101000a900460ff166002811115611b4f57fe5b145b611b90576040517f08c379a0000000000000000000000000000000000000000000000000000000008152600401611b8790612705565b60405180910390fd5b6002600081548092919060010191905055506002549050600060076000838152602001908152602001600020905081816000018190555083816002019080519060200190611bdf929190611e67565b5082816003019080519060200190611bf8929190611e67565b50338160010160006101000a81548173ffffffffffffffffffffffffffffffffffffffff021916908373ffffffffffffffffffffffffffffffffffffffff16021790555060008160050160006101000a81548160ff02191690836002811115611c5d57fe5b02179055504281600401819055506008819080600181540180825580915050600190039060005260206000209060060201600090919091909150600082015481600001556001820160009054906101000a900473ffffffffffffffffffffffffffffffffffffffff168160010160006101000a81548173ffffffffffffffffffffffffffffffffffffffff021916908373ffffffffffffffffffffffffffffffffffffffff16021790555060028201816002019080546001816001161561010002031660029004611d2f929190611de0565b5060038201816003019080546001816001161561010002031660029004611d57929190611de0565b50600482015481600401556005820160009054906101000a900460ff168160050160006101000a81548160ff02191690836002811115611d9357fe5b021790555050507f05aed0f9e08bd59568a150f02aa524912356d7109fd145147712dc2782d83b6382604051611dc99190612725565b60405180910390a15092915050565b600033905090565b828054600181600116156101000203166002900490600052602060002090601f016020900481019282601f10611e195780548555611e56565b82800160010185558215611e5657600052602060002091601f016020900482015b82811115611e55578254825591600101919060010190611e3a565b5b509050611e639190611ee7565b5090565b828054600181600116156101000203166002900490600052602060002090601f016020900481019282601f10611ea857805160ff1916838001178555611ed6565b82800160010185558215611ed6579182015b82811115611ed5578251825591602001919060010190611eba565b5b509050611ee39190611ee7565b5090565b611f0991905b80821115611f05576000816000905550600101611eed565b5090565b90565b600081359050611f1b816129a7565b92915050565b600082601f830112611f3257600080fd5b8135611f45611f40826127ce565b6127a1565b91508082526020830160208301858383011115611f6157600080fd5b611f6c83828461293a565b50505092915050565b600081359050611f84816129be565b92915050565b600060208284031215611f9c57600080fd5b6000611faa84828501611f0c565b91505092915050565b60008060408385031215611fc657600080fd5b600083013567ffffffffffffffff811115611fe057600080fd5b611fec85828601611f21565b925050602083013567ffffffffffffffff81111561200957600080fd5b61201585828601611f21565b9150509250929050565b60006020828403121561203157600080fd5b600061203f84828501611f75565b91505092915050565b60006120548383612447565b905092915050565b612065816128e0565b82525050565b61207481612872565b82525050565b61208381612872565b82525050565b61209281612860565b82525050565b60006120a38261280a565b6120ad818561282d565b9350836020820285016120bf856127fa565b8060005b858110156120fb57848403895281516120dc8582612048565b94506120e783612820565b925060208a019950506001810190506120c3565b50829750879550505050505092915050565b61211681612884565b82525050565b612125816128f2565b82525050565b612134816128f2565b82525050565b61214381612904565b82525050565b600061215482612815565b61215e818561283e565b935061216e818560208601612949565b6121778161297c565b840191505092915050565b600061218d82612815565b612197818561284f565b93506121a7818560208601612949565b6121b08161297c565b840191505092915050565b60006121c860268361284f565b91507f4f776e61626c653a206e6577206f776e657220697320746865207a65726f206160008301527f64647265737300000000000000000000000000000000000000000000000000006020830152604082019050919050565b600061222e60118361284f565b91507f426f756e74792077617320636c6f7365640000000000000000000000000000006000830152602082019050919050565b600061226e60158361284f565b91507f426f756e747920616c726561647920636c6f73656400000000000000000000006000830152602082019050919050565b60006122ae60108361284f565b91507f5061757361626c653a20706175736564000000000000000000000000000000006000830152602082019050919050565b60006122ee60208361284f565b91507f596f75206d7573742070726f7669646520612076616c696420616464726573736000830152602082019050919050565b600061232e60208361284f565b91507f4f776e61626c653a2063616c6c6572206973206e6f7420746865206f776e65726000830152602082019050919050565b600061236e60258361284f565b91507f596f752063616e206f6e6c792063616e63656c2070656e64696e672070726f7060008301527f6f73616c730000000000000000000000000000000000000000000000000000006020830152604082019050919050565b60006123d460198361284f565b91507f412077696e6e657220616c7265616479206465636c61726564000000000000006000830152602082019050919050565b600061241460188361284f565b91507f2057696e6e657220616c7265616479206465636c6172656400000000000000006000830152602082019050919050565b600060c08301600083015161245f60008601826124d7565b506020830151612472602086018261206b565b506040830151848203604086015261248a8282612149565b915050606083015184820360608601526124a48282612149565b91505060808301516124b960808601826124d7565b5060a08301516124cc60a086018261211c565b508091505092915050565b6124e0816128d6565b82525050565b6124ef816128d6565b82525050565b600060208201905061250a6000830184612089565b92915050565b6000602082019050612525600083018461205c565b92915050565b6000602082019050612540600083018461207a565b92915050565b600060408201905061255b600083018461205c565b818103602083015261256c81612221565b905092915050565b6000606082019050612589600083018661205c565b61259660208301856124e6565b6125a360408301846124e6565b949350505050565b600060208201905081810360008301526125c58184612098565b905092915050565b60006020820190506125e2600083018461210d565b92915050565b60006020820190506125fd600083018461213a565b92915050565b6000602082019050818103600083015261261d8184612182565b905092915050565b6000602082019050818103600083015261263e816121bb565b9050919050565b6000602082019050818103600083015261265e81612261565b9050919050565b6000602082019050818103600083015261267e816122a1565b9050919050565b6000602082019050818103600083015261269e816122e1565b9050919050565b600060208201905081810360008301526126be81612321565b9050919050565b600060208201905081810360008301526126de81612361565b9050919050565b600060208201905081810360008301526126fe816123c7565b9050919050565b6000602082019050818103600083015261271e81612407565b9050919050565b600060208201905061273a60008301846124e6565b92915050565b600060a08201905061275560008301886124e6565b6127626020830187612089565b81810360408301526127748186612182565b905081810360608301526127888185612182565b9050612797608083018461212b565b9695505050505050565b6000604051905081810181811067ffffffffffffffff821117156127c457600080fd5b8060405250919050565b600067ffffffffffffffff8211156127e557600080fd5b601f19601f8301169050602081019050919050565b6000819050602082019050919050565b600081519050919050565b600081519050919050565b6000602082019050919050565b600082825260208201905092915050565b600082825260208201905092915050565b600082825260208201905092915050565b600061286b826128b6565b9050919050565b600061287d826128b6565b9050919050565b60008115159050919050565b600081905061289e8261298d565b919050565b60008190506128b18261299a565b919050565b600073ffffffffffffffffffffffffffffffffffffffff82169050919050565b6000819050919050565b60006128eb82612916565b9050919050565b60006128fd82612890565b9050919050565b600061290f826128a3565b9050919050565b600061292182612928565b9050919050565b6000612933826128b6565b9050919050565b82818337600083830152505050565b60005b8381101561296757808201518184015260208101905061294c565b83811115612976576000848401525b50505050565b6000601f19601f8301169050919050565b6003811061299757fe5b50565b600381106129a457fe5b50565b6129b081612860565b81146129bb57600080fd5b50565b6129c7816128d6565b81146129d257600080fd5b5056fea264697066735822122013906f620ac9a01e450022062c75afcd1745eafba07597aaca8f207751d6a03c64736f6c634300060500334f776e61626c653a206e6577206f776e657220697320746865207a65726f2061646472657373426f756e746965732073686f756c64206265206d6f7265207468616e206f6666736574a264697066735822122087e166dc53e7231038b1cef20ce8cbcf71c3fdd743b79a2440114d9df90e154964736f6c634300060500334f776e61626c653a206e6577206f776e657220697320746865207a65726f2061646472657373",
  "immutableReferences": {},
  "source": "pragma solidity ^0.6.5;\n\nimport \"./BountyV2.sol\";\nimport \"@openzeppelin/contracts/utils/Pausable.sol\";\nimport \"@openzeppelin/contracts/utils/ReentrancyGuard.sol\";\nimport \"@openzeppelin/contracts/access/Ownable.sol\";\nimport \"@openzeppelin/contracts/math/SafeMath.sol\";\n\ncontract BountyFactory is Ownable, Pausable{\n\n    uint public MAXLIMIT = 20;\n\n    address payable admin;\n    mapping(address => bool) public isBountyOwner;\n    mapping(address => Bounty[]) public ownerBounties;\n    Bounty[] private bounties;\n\n    event BountyCreated(address indexed bountyAddress);\n\n    modifier paidEnough(uint _amount) { \n        require(msg.value >= _amount);\n        _;\n    }\n\n    modifier checkValue(uint _amount) {\n    _;\n    uint amountToRefund = msg.value - _amount;\n    if(amountToRefund > 0) msg.sender.transfer(amountToRefund);\n  }\n\n  modifier verifyIsBountyOwner(){\n      require(isBountyOwner[msg.sender], 'You have not created any bounty yet' );\n      _;\n  }\n\n  constructor() public {\n      admin = msg.sender;\n      transferOwnership(admin);\n  }\n\n    function createNewBounty(\n        uint _amount,\n        string memory _title, \n        string memory _desc\n    )   public \n        payable \n        whenNotPaused()\n        paidEnough(_amount)\n        checkValue(_amount)\n    {\n        Bounty bounty = new Bounty( _amount, _title, _desc);\n        address payable bountyAddress = payable(address(bounty));\n        bountyAddress.transfer(_amount);\n        isBountyOwner[msg.sender] = true;\n        ownerBounties[msg.sender].push(bounty);\n        bounties.push(bounty);\n        emit BountyCreated(address(bounty));\n    }\n\n    function getBounties(uint _limit, uint _offset)\n         public \n         view\n         whenNotPaused() \n         returns(Bounty[] memory _bounties)\n        {\n        require(_offset <= bountiesCount(), 'Bounties should be more than offset');\n\n        uint size = bountiesCount() - _offset;\n            size = size < _limit ? size : _limit;\n            size = size < MAXLIMIT ? size : MAXLIMIT;\n            _bounties = new Bounty[](size);\n\n            for(uint i = 0; i < size; i++){\n                _bounties[i] = bounties[_offset + i];\n            }\n        return _bounties;\n    }\n\n    function getMyBounties() public view returns(Bounty[] memory _ownerBounties){\n        _ownerBounties = ownerBounties[msg.sender];\n    }\n\n    function getMyBountiesCount() public view returns(uint _count){\n        _count = ownerBounties[msg.sender].length;\n    }\n\n    function bountiesCount() public view returns(uint){\n        return bounties.length;\n    }\n}",
  "sourcePath": "/home/richix/Desktop/CONSENSYS-SCHOLAR/BOXES/bounty-dapp/contracts/BountyFactory.sol",
  "compiler": {
    "name": "solc",
    "version": "0.6.5+commit.f956cc89.Emscripten.clang"
  },
  "schemaVersion": "3.1.0",
  "updatedAt": "2020-06-06T11:02:22.867Z",
  "networkType": "ethereum",
  "devdoc": {
    "methods": {
      "owner()": {
        "details": "Returns the address of the current owner."
      },
      "paused()": {
        "details": "Returns true if the contract is paused, and false otherwise."
      },
      "renounceOwnership()": {
        "details": "Leaves the contract without owner. It will not be possible to call `onlyOwner` functions anymore. Can only be called by the current owner.     * NOTE: Renouncing ownership will leave the contract without an owner, thereby removing any functionality that is only available to the owner."
      },
      "transferOwnership(address)": {
        "details": "Transfers ownership of the contract to a new account (`newOwner`). Can only be called by the current owner."
      }
    }
  },
  "userdoc": {
    "methods": {}
  }
}